:020000040800F2
:10000000E01500206D0100081D0B0008C307000863
:10001000190B000821060008E32200080000000078
:10002000000000000000000000000000590100086E
:10003000470600080000000021010008051B000819
:100040008701000887010008870100088701000870
:100050008701000887010008870100088701000860
:100060008701000887010008870100088701000850
:100070008701000887010008870100088701000840
:100080008701000887010008870100088701000830
:100090008701000887010008870100088701000820
:1000A0008701000887010008870100088701000810
:1000B0008701000887010008000000008701000890
:1000C0008701000800000000000000008701000810
:1000D00000000000F1200008870100080000000077
:1000E000870100088701000887010008DFF80CD0AD
:1000F00000F07CFA00480047B5260008E015002013
:10010000EFF30980704780F309887047EFF30880A8
:10011000704780F30888704740BA7047C0BA70478C
:1001200072B6EFF3098020E9F00F08490A68084B1E
:1001300043F82200074C24680C6053F82400B0E810
:10014000F00F80F3098862B6704700005C00002061
:10015000CC010020600000201EF0040F0CBFEFF364
:100160000880EFF3098001F067B800000648804777
:1001700006480047FEE7FEE7FEE7FEE7FEE7FEE78C
:10018000FEE7FEE7FEE7FEE7211C0008ED000008A1
:10019000D2B201E000F8012B491EFBD270470022C9
:1001A000F6E710B513460A4604461946FFF7F0FF76
:1001B000204610BD2DE9FE4F804681EA0300C00FA6
:1001C0000C46009021F0004123F00045B8EB0200FE
:1001D000A94105D24046214690461C460B460246A0
:1001E00023F00040104347D0270DC7F30A00C3F3A4
:1001F0000A510290401A019040286BDAC3F31300B1
:1002000040F4801B0098924620B10023D2EB030AF1
:1002100063EB0B0B01985946C0F14002504600F0C9
:1002200057F906460D4650465946019A00F06FF9B7
:1002300010EB08006141002487EA115284EAE77359
:100240001A4340D0009A62B3019A012A4FEA07523A
:1002500015DC001B61EB02014FF0004202EA07527D
:10026000CDE90042001C41F5801132462B4600F0DA
:100270006FF903B0BDE8F08F40462146F9E7001B57
:1002800061EB0201001C41F5801300185B4120184E
:10029000A2F5001747EB030140EAD570B6196D418E
:1002A00011E06D084FEA360645EAC0754FEA07527D
:1002B000001B61EB0201001C41F5801149084FEA67
:1002C00030000019514132462B4603B0BDE8F04FD3
:1002D00000F02FB90098012240000023D0EB020269
:1002E00063EBE073009821464FEAE074B8EB00003E
:1002F00061EB0401E9E783F000435BE781F0004133
:1003000058E72DE9FE4F81EA030404F0004421F090
:10031000004100944FF0000B23F0004350EA010429
:100320005ED052EA03045BD0C3F30A54C1F30A550A
:100330002C44A4F2F3340194A0FB0254C1F3130142
:1003400041F48011C3F3130343F4801301FB02440F
:1003500000FB034E840A970A44EA815447EA835714
:10036000A4FB076802958D0A05FB07854FEA932CCD
:1003700004FB0C542705029D4FEA065847EA16373E
:10038000B5EB08056EEB070C870E920E47EA811756
:1003900042EA8312A7FB0201B6EB0B0164EB0004F7
:1003A0002B0D43EA0C335E1844EB1C50DA465146E1
:1003B000E7FB0201C5F313044FEA0B3343EA14537E
:1003C0004FEA0432019C43EA0603A4F10C040294B0
:1003D000009CCDE900B400F0BBF803B0BDE8F08F9D
:1003E00000200146F9E70EB5C10F80EAE07008442D
:1003F000CA07002140F233438DE80E000A460B463F
:1004000000F0A6F803B000BD70B5C1F30A5201F0C8
:1004100000450024C1F3130140F2FF3341F4801181
:100420009A4201DA002070BD40F233439A42A2F2B0
:10043000334203DC524200F05AF800E090402C4373
:10044000F1D0404270BDC1F30A5210B5C1F313019F
:1004500040F2FF3341F480119A4201DA002010BDCE
:1004600040F233439A42A2F2334203DC524200F09C
:100470003EF810BD904010BD00F0004230F000404A
:100480000AD0C10D01F56071C0F3160042EA0151B6
:10049000C208400711437047002001467047000022
:1004A00030B5041E71F1000404DB4FF000444042FB
:1004B00064EB0101141E73F1000405DB1C464FF0D0
:1004C0000043524263EB0403994208BF904230BD9F
:1004D000202A04DB203A00FA02F100207047914004
:1004E000C2F1200320FA03F3194390407047202AF9
:1004F00004DB203A21FA02F00021704721FA02F3CE
:10050000D040C2F120029140084319467047202A8A
:1005100006DBCB17203A41FA02F043EAE07306E02B
:1005200041FA02F3D040C2F120029140084319463B
:10053000704710B5141E73F1000408DA401C41F135
:10054000000192185B411A4301D120F0010010BD57
:100550002DE9F04D92469B4611B1B1FA81F202E0CD
:10056000B0FA80F220329046FFF7B2FF04460F4601
:1005700040EA0A0041EA0B0153465A46084313D0A9
:10058000114653EA010019D0C8F140025046FFF766
:10059000AEFF05460E46504659464246FFF798FFC5
:1005A000084305D0012004E020463946BDE8F08D1F
:1005B0000020054346EAE0762C4337430A9863055A
:1005C000E40AA0EB08000022FD0A44EA47540A307E
:1005D00002D500200146E9E7010510196941DDE96E
:1005E000084500196941BDE8F04DA2E7064C074DEA
:1005F00006E0E06840F0010394E8070098471034F3
:10060000AC42F6D3FFF776FDC8340008E8340008A2
:1006100010B501F01FFD00F0D9F800F02DF910BD64
:1006200000BFFEE710B50C2002F0A6F8044644B166
:100630000020206060600422002104F1080002F024
:10064000E5F8204610BD70470648006820B9012033
:1006500080F3108800BF00BF02480068401C0149B9
:10066000086070475400002007480068012804D142
:10067000002080F3108800BF00BF03480068401EC0
:100680000149086070470000540000202DE9F04146
:10069000024600250026002000230024002791F8B0
:1006A00003C00CF00F0591F803C00CF0100CBCF166
:1006B000000F03D091F802C04CEA050591F800C084
:1006C000BCF1000F31D0146800202BE04FF0010C7A
:1006D0000CFA00F3B1F800C00CEA03069E4220D1E8
:1006E00083004FF00F0C0CFA03F7BC4305FA03FC30
:1006F0004CEA040491F803C0BCF1280F06D14FF076
:10070000010C0CFA00FCC2F814C00AE091F803C016
:10071000BCF1480F05D14FF0010C0CFA00FCC2F8F7
:1007200010C0401C0828D1D31460B1F800C0BCF13F
:10073000FF0F34DD546800202EE000F1080C4FF06C
:10074000010808FA0CF3B1F800C00CEA03069E4257
:1007500021D183004FF00F0C0CFA03F7BC4305FACC
:1007600003FC4CEA040491F803C0BCF1280F05D146
:1007700000F1080C08FA0CF8C2F8148091F803C0D4
:10078000BCF1480F07D100F1080C4FF0010808FA3E
:100790000CF8C2F81080401C0828CED35460BDE885
:1007A000F0810246002093680B400BB1012000E06D
:1007B00000207047016170470AB1016100E04161AA
:1007C000704702F079FC00BFFEE7000010B5134847
:1007D00020F007044FF480520021C01F02F016F8E9
:1007E000C4F580500D49C91F08441838A0606FF047
:1007F0000040A043616860F31E016160606820F002
:1008000000406060064820600020E0602061606178
:10081000044804600448046010BD0000E3010020A7
:100820005AEFCDAB680000206C00002000BFFEE74F
:1008300038B504460D46E0B210B1012808D103E0F6
:1008400010208DF8030007E004208DF8030003E07A
:1008500010208DF8030000BF00BF4FF48050ADF8AA
:10086000000003208DF8020069460248FFF70EFFE2
:1008700038BD0000000C014010B509A0094908600E
:10088000094888600020C860086108484861084835
:1008900088610848C861084601F084FE10BD000068
:1008A0004C454400F0000020B9080008F108000899
:1008B0000D0900083108000808B50121082000F0E2
:1008C000F3FA4FF48050ADF8000010208DF80300CB
:1008D00003208DF8020069460448FFF7D7FE4FF465
:1008E00080510248FFF766FF08BD0000000C014080
:1008F00070B506460C4615464FF480510248FFF786
:1009000050FF2070284670BD000C014070B50646AF
:100910000C46154622784FF480510248FFF74CFFF1
:10092000284670BD000C01401548007838BB1548BA
:100930000068006800881449086014480068096865
:1009400088421CD01048006800EB400101EBC00059
:100950000F4901EB800040690E49096808440A49C3
:10096000096801EB410202EBC101094A02EB810176
:1009700008610948006840F08050074908607047E6
:10098000640000204C000020600000205C0000207B
:100990001C0100205800002004ED00E0F0B50646E0
:1009A0000C4617462146304600F06CF816B1012E71
:1009B00060D126E0E06831490968C968884205D2FB
:1009C0002E48006860622D48046019E02B480568D5
:1009D0000DE0E068E968884208D3E068696AC968A0
:1009E000884203D8686A60626C6203E06D6A686A74
:1009F0000028EED100BF686A10B96C620020606206
:100A000039E0207AA8B3607A98B360891C490968F4
:100A10004989884205DD1A480068A06218480460C8
:100A200027E0174805681BE067B960896989884233
:100A300015DC6089A96A4989884210DDA86AA0622C
:100A4000AC6210E060896989884208DC6089A96A23
:100A50004989884203DBA86AA062AC6203E0AD6A00
:100A6000A86A0028E0D100BFA86A10B9AC620020D3
:100A7000A06200E000BF00BFF0BD00004800002001
:100A80004C00002010B5024612B1012A3CD11DE0F5
:100A90001F4C0B6824682468A34205D11C4B1B68BB
:100AA0005B6A1B4C236010E0194B186809E0436A2D
:100AB0001B680C68A34203D1436A5B6A436203E08C
:100AC000406A436A002BF2D100BF1EE0114C0B6854
:100AD00024682468A34205D10E4B1B689B6A0D4C09
:100AE000236010E00B4B186809E0836A1B680C68F0
:100AF000A34203D1836A9B6A836203E0806A836AAC
:100B0000002BF2D100BF00E000BF00BF10BD00000D
:100B1000480000204C00002000BFFEE7704708B5E9
:100B20004FF4E06000F048F825208DF80000002028
:100B30008DF8010001208DF802008DF80300684651
:100B400000F002F808BD000070B5002100230F225C
:100B5000C47804B3154C246804F4E064C4F5E0647C
:100B6000210AC1F10403CA40447804FA03F18478ED
:100B70001440214309010E4C0678A155047804F075
:100B80001F050124AC4005786D11AD0005F1E0258D
:100B9000C5F8004109E0047804F01F050124AC40C9
:100BA000044D0678761145F8264070BD0CED00E046
:100BB00000E400E080E100E002490143024A1160E4
:100BC000704700000000FA050CED00E010B50028A9
:100BD00007DA0A07140E054A00F00F031B1FD4544E
:100BE00003E00A07130E024A135410BD18ED00E08B
:100BF00000E400E000B5FFF727FD0120024908707E
:100C0000FFF732FD00BD00006400002010B504466F
:100C1000FFF71AFD002004EB440101EBC4010C4A6C
:100C200002EB8101487204EB440101EBC40102EBC9
:100C30008101087204EB440000EBC40002EB800168
:100C40000120FFF71FFFFFF76FFEFFF70DFD10BD3F
:100C50001C0100202DE9F04704460F4690461D4632
:100C6000DDF820900026FFF7EFFC4246394620468B
:100C700000F0C0F80646012E20D0B9F1000F1CD0BC
:100C80000DB900261AE0012104F108000E4A12688D
:100C90008154FFF7E9FC284600F080F9FFF7D4FC07
:100CA000002104F10800084A12688154424639467E
:100CB000204600F09FF8064600E00026FFF7D4FC2F
:100CC0003046BDE8F08700005C0000202DE9F05FB1
:100CD0000646894692461F46DDF828B000BF4148C7
:100CE000008800EB400101EBC0003F4901EB8005AB
:100CF000FFF7AAFC52464946304600F0A6F8804667
:100D0000B8F1010F22D0BBF1000F1DD017B94FF081
:100D100000081BE0012106F10800344A12688154E2
:100D2000FFF7A2FC384600F039F9FFF78DFC0021EF
:100D300006F108002D4A1268815452464946304651
:100D400000F083F8804601E04FF00008B8F1010F91
:100D500043D1002424E006F10800005D01281DD1E4
:100D600004EB440000EBC4001F4951F82000008848
:100D70001F490988884211D0688904EB440101EBBE
:100D8000C401194A02EB81014989884206DA04EB61
:100D9000440000EBC400114601EB8005601C84B2E6
:100DA000042CD8DB0F48008800EB400101EBC000A9
:100DB0000D4901EB8000A8420FD00021286802886D
:100DC00006F1080081540120287268720122294628
:100DD0001046FFF7E3FDFFF7A7FDFFF745FC404690
:100DE000BDE8F09F500000201C0100205C000020A6
:100DF0003C0000202DE9F04704460E469046D4F80A
:100E000000903746606820B9206810B90020BDE81E
:100E1000F0872068056803E015F8010B07F8010B5F
:100E2000B8F10000A8F10108F6D120684068206000
:100E3000D9F8000001F046FC484601F043FC206868
:100E400008B9002060600120E1E72DE9F047044681
:100E50000F469146B846484601F08EFC06460820EB
:100E600001F08AFC0546B8F1000F01D005B116B9B2
:100E70000020BDE8F087606818B9206808B92560CF
:100E800001E0606845606560002068602E6003E0F6
:100E900018F8010B06F8010BB9F10000A9F10109DE
:100EA000F6D10120E5E7000029B1064A9269024324
:100EB000044B9A6104E0034A92698243014B9A61B0
:100EC000704700000010024030B5002100220024CD
:100ED00000232D4D6D6805F00C0121B1042905D0CA
:100EE000082923D105E0294D056022E0274D056042
:100EF0001FE0254D6D6805F47012234D6D6805F4F3
:100F00008034022505EB92421CB9214D5543056002
:100F10000BE01D4D6D6805F400351DB11C4D5543AA
:100F2000056002E0194D5543056002E0174D05606C
:100F300000BF00BF144D6D6805F0F0010909154DA3
:100F40006B5C0568DD4045600F4D6D6805F4E06140
:100F5000090A104D6B5C4568DD4085600A4D6D687F
:100F600005F46051C90A0B4D6B5C4568DD40C560F6
:100F7000054D6D6805F44041890B074D6B5CC568F4
:100F8000B5FBF3F5056130BD0010024000127A0098
:100F900000093D00000000201000002010B50446AC
:100FA000FFF752FB00202149096801EB410202EBE7
:100FB000C1011F4A02EB81010872601CD0B11D48BB
:100FC000006820441949096801EB410202EBC101A4
:100FD000174A02EB8101C8601448006800EB400228
:100FE00002EBC000124A02EB800101220020FFF751
:100FF000D5FC0AE000200D49096801EB410202EB33
:10100000C1010B4A02EB810148720848006800EBFD
:10101000400202EBC000064A02EB80010120FFF70C
:1010200031FDFFF781FCFFF71FFB10BD5C000020C6
:101030001C010020580000207FB5FFF705FB524837
:1010400032214FF0FF3200920023CDE901210390BD
:1010500001224EA1504800F077FE504864214FF025
:10106000FF320023CDE90032CDE90210130C00223B
:101070004BA1504800F068FE00F002FE42484FF0DD
:10108000FF3100230122CDE9001019464A4800F043
:1010900009FB4FF4007049490860002430E004EB7C
:1010A000440000EBC400464951F82000048004EBE2
:1010B000440000EBC40001EB8000816904EB4400B4
:1010C00000EBC4003E4A02EB8000808B01EB800005
:1010D00040383C4941F8240004EB440000EBC400D4
:1010E000114601EB8000006A364951F824108863EC
:1010F0004FF08070334951F82410C863601C84B2EB
:10110000042CCCDB00F00CFF00F03CFB00202E494F
:1011100008602C492C4A126851F8221001F1400055
:10112000FEF7F1FFFF216FF00100FFF74FFD0021F7
:10113000481FFFF74BFD254800682549B0FBF1F03B
:101140004FF47A7100FB01F5B5F1807F00D311E017
:1011500025F07F40401E4FF0E02148610F214FF005
:10116000FF30FFF733FD00204FF0E02188610720BA
:10117000086100BFFFF778FA022080F3148800BFEF
:10118000FFF754FB7FBD00002D08000849646C6523
:101190005F7461736B00000050000020BD2A0008DE
:1011A00074696D65725F67756172645F7461736B9A
:1011B000000000003C0000203E00002014ED00E094
:1011C0001C010020CC0100205C0000202400002035
:1011D00040420F0000B5FFF737FA002002490870BF
:1011E000FFF742FA00BD00006400002010B504467D
:1011F000FFF72AFA012004EB440101EBC4010D4A78
:1012000002EB8101487204EB440101EBC40102EBE3
:101210008101087204EB440000EBC40002EB800182
:1012200001221046FFF7BAFBFFF77EFBFFF71CFA1F
:1012300010BD00001C010020D0E900231A44026008
:10124000826912F8021C01B900E000BF00BF7047BC
:101250002DE9F04107460D464948008800EB400162
:1012600001EBC000474901EB8006FFF7EDF9032FC2
:1012700003D12868401C286001E001202860012F6C
:1012800035D1002430E005F10800005D012829D1A6
:1012900004EB440000EBC4003A4951F820000088F8
:1012A0003949098888421DD0002105F108000155FF
:1012B000012004EB440101EBC401324A02EB81013D
:1012C000087204EB440101EBC40102EB8101487296
:1012D00004EB440000EBC40002EB80010122104645
:1012E000FFF75CFB601C84B2042CCCDB41E00024E3
:1012F00024E005F10800005D01281DD104EB440045
:1013000000EBC4001F4951F8200000881E490988DD
:10131000884211D0708904EB440101EBC401194AE1
:1013200002EB81014989884206DA04EB440000EBB4
:10133000C400114601EB8006601C84B2042CD8DB8B
:101340000F48008800EB400101EBC0000D4901EBA4
:101350008000B0420DD000213068028805F10800FD
:101360008154012030727072012231461046FFF71D
:1013700015FBFFF7D9FAFFF777F9BDE8F081000018
:10138000500000201C0100203C0000202DE9F0410D
:1013900005460C4616461F464FF00008FFF754F965
:1013A0002068D0B1032D03D12068401E206001E0E9
:1013B000002020604FF00108002F0DD04848006841
:1013C000A0804748006800EB400101EBC0004549A0
:1013D00001EB80004089E0807CE0002F78D016B9D6
:1013E0004FF0000876E0A08818B3E08808B33C48C6
:1013F000006800EB400101EBC0003A4901EB8000BE
:101400004089E188884214DD022D12D134480068F9
:1014100000EB400101EBC000324901EB8000408944
:10142000A18801EB410202EBC1012E4A02EB8101CE
:101430004881012104F10800294A12688154FFF70C
:1014400013F93046FFF7AAFDFFF7FEF8002104F17B
:101450000800234A12688154A088D0B1E088C0B146
:101460001F48006800EB400101EBC0001D4901EB83
:1014700080004089E18888420BDD022D09D1E08897
:10148000A18801EB410202EBC101164A02EB810186
:1014900048812068C8B1032D03D12068401E206018
:1014A00001E0002020604FF001080D480068A08096
:1014B0000B48006800EB400101EBC000094901EB5B
:1014C00080004089E08005E002E04FF0000801E084
:1014D0004FF00008FFF7C8F84046BDE8F081000073
:1014E0005C0000201C01002010B500F001F810BDC8
:1014F0000CB50020019000903348006840F4803023
:101500003149086000BF3048006800F400300090A6
:101510000198401C0190009818B90198B0F5A06F8F
:10152000F1D12948006800F4003010B1012000908A
:1015300001E0002000900098012843D12348006872
:1015400040F01000214908600846006820F00300C0
:1015500008600846006840F0020008601A484068C9
:10156000194948600846406848600846406840F4A9
:10157000806048600846406820F47C104860084657
:10158000406840F4E81048600846006840F0807009
:10159000086000BF0C48006800F000700028F9D017
:1015A0000948406820F00300074948600846406841
:1015B00040F00200486000BF0348406800F00C00A3
:1015C0000828F9D10CBD00000010024000200240A4
:1015D0002DE9F04705460F464FF00009FFF734F8B4
:1015E00028680121B9400843286000244DE005F136
:1015F000180030F81400012845D104EB440000EB3A
:10160000C400264951F820000088254909888842ED
:1016100039D0281D50F82460103010F80480B8F13B
:10162000000F07D128683040B04201D1012007E007
:10163000002005E02868304008B1012000E00020CB
:101640008146B9F1010F1ED1002105F1180020F8E3
:101650001410012004EB440101EBC4010F4A02EB1A
:101660008101087204EB440101EBC40102EB81012A
:10167000487204EB440000EBC40002EB800101223D
:101680001046FFF78BF9601C84B2042CAFDBFFF728
:101690004BF9FEF7E9FFBDE8F08700001C010020D0
:1016A0003C0000202DE9F04705460C4616461F4633
:1016B000DDE9088927480088032801DA012000E0D5
:1016C000002020B9642224A129A001F0B1F821480A
:1016D0000088C0EBC0002A4941F820501D4800880E
:1016E000C0EBC00001EB800004711A480088C0EB19
:1016F000C00001EB8000867416480088C0EBC00073
:1017000001EB8000078213480088C0EBC00001EBAA
:101710008000C0F80C800F480088C0EBC00001EBCF
:10172000800044710B480088C0EBC00001EB8000D2
:10173000C0F8088007480088C0EBC00001EB8000BB
:10174000C0F8149003480088401C02490880BDE896
:10175000F087000040000020557365725C5372638F
:101760005C736F66745F74696D65722E6300000050
:101770004572726F723A25732C25640D0A000000C1
:101780009C00002030B587B00024E2E0601C85B2E8
:10179000DAE0C4EBC4008C4901EB8000008AC5EBA1
:1017A000C501894A02EB8101098A88427DDAC5EBCD
:1017B000C500114651F820000090C5EBC50001EBB3
:1017C000800000798DF80400C5EBC50001EB8000B6
:1017D00040798DF80500C5EBC50001EB80008068FD
:1017E0000290C5EBC50001EB8000C0680390C5EB1B
:1017F000C50001EB8000008AADF81000C5EBC50004
:1018000001EB8000807C8DF81200C5EBC50001EB78
:101810008001D1E9050105900691C5EBC50011468F
:1018200001EB8000C4EBC40152F821100160C4EB4D
:10183000C400114601EB80000079C5EBC50102EB45
:1018400081010871C4EBC400114601EB80004079AE
:10185000C5EBC50102EB81014871C4EBC400114620
:1018600001EB80008068C5EBC50102EB8101886057
:10187000C4EBC400114601EB8000C068C5EBC50194
:1018800002EB8101C860C5EBC500114601EB800089
:10189000C4EBC40102EB8101098A0182C4EBC400DC
:1018A000114601EB8000807C00E04BE0C5EBC501F8
:1018B00002EB81018874C5EBC500114601EB800085
:1018C000C4EBC40102EB8102D2E90512C0E90512A2
:1018D000C4EBC4003C4901EB8000009901609DF815
:1018E0000400C4EBC401384A02EB810108719DF881
:1018F0000500C4EBC40102EB810148710298C4EBFE
:10190000C40102EB810188600398C4EBC40102EBBF
:101910008101C860C4EBC400114601EB8000BDF832
:10192000101001829DF81200C4EBC40102EB81018A
:101930008874C4EBC400114601EB80000599069A37
:10194000C0E90512681C85B2032DFFF622AF601CAA
:1019500084B2032CFFF61AAF002407E0C4EBC400E6
:10196000194951F820000480601C84B2032CF5DB77
:1019700015481649086000240DE0601CC0EBC0004B
:10198000114901EB8000C4EBC4010F4A02EB810155
:101990008861601C84B2022CEFDB0020C4EBC40120
:1019A000094A02EB81018861002408E0C4EBC4010C
:1019B000054A02EB810000F00BF8601C84B2032C96
:1019C000F4DB07B030BD00009C0000203800002090
:1019D00030B50446204600F029F8A068124909688D
:1019E0008968884205D210480068A0610E480460EA
:1019F00019E00D4805680DE0A068A968884208D381
:101A0000A068A9698968884203D8A869A061AC6107
:101A100003E0AD69A8690028EED100BFA86910B93C
:101A2000AC610020A06130BD3800002001460F4BA2
:101A30000A681B681B689A4205D10C4A12689269B1
:101A40000A4B1A6010E0094A106809E082691268BE
:101A50000B689A4203D182699269826103E08069CE
:101A60008269002AF2D100BF7047000038000020D0
:101A700010B50446FEF7E8FDC4EBC400114901EBC4
:101A80008000C068104909680844C4EBC4010D4ACD
:101A900002EB81018860C4EBC40102EB8100FFF717
:101AA00097FF0020C4EBC401064A02EB81010871D4
:101AB0000120C4EBC40102EB81014871FEF7D4FDA3
:101AC00010BD00009C0000205800002010B5044606
:101AD000FEF7BAFDC4EBC401094A02EB8100FFF72F
:101AE000A5FF0020C4EBC401054A02EB8101087187
:101AF000C4EBC40102EB81014871FEF7B5FD10BDD6
:101B00009C00002010B5FEF79FFD3F480068401C78
:101B10003D4908603D48006800EB400101EBC00012
:101B20003B4901EB800000693749096888422FD2A0
:101B30003648006800EB400101EBC000344901EB7E
:101B40008000007A012823D13048006800EB400172
:101B500001EBC0002E4901EB8000806A40892B49CF
:101B6000096801EB410202EBC101294A02EB810144
:101B7000498988420CD12548006800EB400202EBFD
:101B8000C000234A02EB800100220120FEF706FF7D
:101B900020480068C0681C490968884212D20120A8
:101BA0001C490968087201221A4801681046FEF7AC
:101BB000F5FE18480068406A20B116480068406A7F
:101BC000144908601448006880680F490968884211
:101BD00015D201201049096808710F480068407942
:101BE000012803D10D480088FFF700FB0A48006870
:101BF000806920B108480068806907490860FEF7DD
:101C000093FEFEF731FD10BD580000205C0000205F
:101C10001C01002048000020380000203C0000206B
:101C200010B51348006840F00100114908600846EB
:101C30004068104908400E494860084600680E494F
:101C400008400B4908600846006820F480200860BE
:101C50000846406820F4FE0048604FF41F0088608A
:101C6000FFF742FC4FF000600449086010BD00001F
:101C7000001002400000FFF8FFFFF6FE08ED00E054
:101C80001FB5FEF7CFFC1E4908600846006810B972
:101C90001CA000F0CDFD20484FF4FA7101231A4634
:101CA000CDE9001000211D48FFF7FCFC1C484FF453
:101CB0007A7102230122CDE9001000211948FFF7B3
:101CC000F1FC194828214FF47A720023CDE9003243
:101CD000CDE9021001231A4614A1164800F034F889
:101CE000154864214FF47A720023CDE90032CDE922
:101CF000021001231A4611A1124800F025F81FBD59
:101D0000200000204372656174205175657565205F
:101D10004661696C0D0A0000DD1F00081A000020F2
:101D2000092000081C000020152C00087461736B4A
:101D30003100000016000020DD2F00087461736B75
:101D400032000000180000202DE9F05F06460F4623
:101D500015469846DDE90AB9DDF830A05B480088F1
:101D6000042801DA012000E0002020B9432258A114
:101D70005CA000F05DFD5548008800EB400101EBE0
:101D8000C0005C4941F820605048008800EB4001E9
:101D900001EBC000574901EB800047604B480088C9
:101DA00000EB400101EBC000524901EB80000572DD
:101DB0004648008800EB400101EBC0004D4901EBB3
:101DC000800045724148008800EB400101EBC000F3
:101DD000484901EB8000A0F80A803C48008800EBED
:101DE000400101EBC000434901EB8000C0F80CB09A
:101DF0003648008800EB400101EBC0003D4901EB93
:101E00008000C0F814903148008800EB400101EBDD
:101E1000C000384901EB8000C0F810904FEA8A00FA
:101E200000F0AAFC2949098801EB410202EBC1013B
:101E3000304A02EB810188612448008800EB4001B0
:101E400001EBC000114601EB8000A0F81CA01F4967
:101E5000098801EB410202EBC101264A02EB810134
:101E60000D9808621948008800EB400101EBC000A2
:101E7000114601EB8000806918B300240DE01E4874
:101E80001249098801EB410202EBC101194A02EB38
:101E90008101896941F82400641C0C48008800EB2A
:101EA000400101EBC000134901EB8000808BA04290
:101EB000E5D806480088401C044908800120BDE898
:101EC000F09F0EA000F0B4FC0020F8E766000020B0
:101ED000557365725C5372635C6B65726E656C2ED4
:101EE000630000004572726F723A25732C25640DF1
:101EF0000A0000001C010020EFBEADDE4E6F742012
:101F0000656E6F756768206D656D6F727920666F9D
:101F100072207461736B20737461636B210D0A000E
:101F200010B52B482B4908602B490860002420E09D
:101F3000601C00EB400101EBC000254901EB800073
:101F400004EB440101EBC401214A02EB8101486228
:101F5000601C00EB400101EBC000114601EB80006A
:101F600004EB440101EBC40102EB81018862601CB7
:101F700084B2032CDCDB002004EB440101EBC40140
:101F8000134A02EB8101486204EB440101EBC401F6
:101F900002EB81018862002417E004EB440000EBAF
:101FA000C4000B4A02EB800101221046FEF7F6FC4A
:101FB00004EB440000EBC400054A02EB800101225F
:101FC0000020FEF7EBFC601C84B2042CE5DB10BDA6
:101FD0001C010020480000204C00002010B502A089
:101FE00000F026FC10BD000054696D6572305F631F
:101FF000616C6C6261636B2069732072756E6E69CF
:102000006E670D0A0000000010B502A000F010FC81
:1020100010BD000054696D6572315F63616C6C6264
:1020200061636B2069732072756E6E696E670D0A4D
:102030000000000010B504462146054800F04DF9A7
:1020400000BF8021024800F07BF80028F9D010BDC5
:102050000038014000B585B0012144F20400FEF7CC
:1020600023FF4FF40070ADF8100018208DF8130016
:1020700003208DF8120004A91848FEF707FB4FF45F
:102080008060ADF8100004208DF8130004A91348F7
:10209000FEF7FCFA4FF4E13000900020ADF80400A8
:1020A000ADF80600ADF80800ADF80C000C20ADF856
:1020B0000A0069460A4800F09FF8012240F22551C3
:1020C000074800F074F80121054800F02DF8FEF7EC
:1020D00026FD04A000F0ACFB05B000BD00080140E7
:1020E0000038014055415254204F4B0D0A0000006A
:1020F00010B540F22551074800F02FF848B10548C7
:1021000000F0E6F8044908700846017803A000F0E2
:102110008FFB10BD0038014014000020434D4420C7
:102120003D2025630D0A000021B1828942F400524E
:10213000828104E082894DF6FF731A4082817047E4
:1021400002460020B1F5007F00D100BF13880B408C
:102150000BB1012000E00020704770B5024600245A
:1021600000230025002040F66A16B14200D100BFCE
:10217000C1F3421501F01F03012606FA03F3012DF6
:1021800002D19689334006E0022D02D1168A3340EF
:1021900001E0968A33400C12012606FA04F41688F0
:1021A000344013B10CB1012000E0002070BDF0B547
:1021B0000346002400260025002040F66A17B94295
:1021C00000D100BF1846C1F3421401F01F060127D9
:1021D00007FA06F5012C01D10C3004E0022C01D1E4
:1021E000103000E014301AB107682F43076002E096
:1021F0000768AF430760F0BD2DE9F04786B005469C
:102200000E460024A24600BFA1460027B08900B1B7
:1022100000BF2F462C8A4CF6FF700440F088044320
:102220002C82AC894EF6F3100440B0883189084303
:10223000718908430443AC81AC8A4FF6FF400440E7
:10224000B0890443AC8201A8FEF73EFE1F488742D6
:1022500002D1DDF810A001E0DDF80CA0A88900F49F
:10226000004040B10AEBCA0000EB0A103168490097
:10227000B0FBF1F807E00AEBCA0000EB0A10316886
:102280008900B0FBF1F86420B8FBF0F004012009EC
:10229000642101FB1089A88900F4004040B132207C
:1022A00000EBC900B0FBF1F000F00700044308E0C8
:1022B000322000EB09106421B0FBF1F000F00F00B8
:1022C00004432C8106B0BDE8F087000000380140CF
:1022D00001468888C0F308007047C1F30802828075
:1022E000704700BFFEE702E008C8121F08C1002ABD
:1022F000FAD170477047002001E001C1121F002A87
:10230000FBD17047F0B503460D4614462A462946D0
:102310000DB1022C01D20120F0BD002B06DA0A2CEF
:1023200004D12D2001F8010B521C5B4200BFB3FB0E
:10233000F4F004FB1036B3FBF4F30A2E04DA06F1D2
:10234000300001F8010B03E006F1370001F8010B42
:10235000002BECD100200870491E05E00F781078A2
:1023600008701770491E521C8A42F7D90020D3E723
:1023700070B5044600250CB1012000E0002020B912
:102380008D2207A10BA000F053FA207930B9206903
:1023900020B120698047012020710125284670BDA9
:1023A000557365725C5372635C6465766963652E10
:1023B000630000004572726F723A25732C25640D1C
:1023C0000A0000002DE9F04104460D46164600279C
:1023D0000CB1012000E0002020B9B32207A10CA01D
:1023E00000F026FA207930B9E06920B1314628465C
:1023F000E269904701273846BDE8F0815573657260
:102400005C5372635C6465766963652E63000000EB
:102410004572726F723A25732C25640D0A00000014
:1024200070B50546002400260DB1012000E0002013
:1024300020B9222209A10EA000F0FAF91048046880
:1024400007E02946206800F0E9FA08B9264602E0CC
:10245000A46A002CF5D100BF304670BD557365727B
:102460005C5372635C6465766963652E630000008B
:102470004572726F723A25732C25640D0A000000B4
:102480004400002070B5044600250CB1012000E096
:10249000002020B96D2208A10CA000F0C9F96079D4
:1024A000012806D1A06820B1A06880470020607193
:1024B0000125284670BD0000557365725C53726338
:1024C0005C6465766963652E630000004572726F17
:1024D000723A25732C25640D0A00000070B504467D
:1024E00000250CB1012000E0002020B97B220BA1C7
:1024F0000FA000F09DF9207901280CD16079012806
:1025000002D12046FFF7BEFFE06808B1E0688047CF
:10251000002020710125284670BD000055736572AA
:102520005C5372635C6465766963652E63000000CA
:102530004572726F723A25732C25640D0A000000F3
:102540002DE9F04104460E4615461F464FF000089F
:1025500014B10DB1012000E0002020B99B2208A198
:102560000CA000F065F9207938B9606928B13A46C5
:10257000294630466369984780464046BDE8F08169
:10258000557365725C5372635C6465766963652E2E
:10259000630000004572726F723A25732C25640D3A
:1025A0000A00000070B50446002600250CB1012089
:1025B00000E0002020B934220FA114A000F038F967
:1025C0002068FFF72DFFA0B91448006820B9134810
:1025D00004600020A06208E01048056800E0AD6AD1
:1025E000A86A0028FBD1AC62A06201202071607152
:1025F0000126304670BD0000557365725C537263EE
:102600005C6465766963652E630000004572726FD5
:10261000723A25732C25640D0A0000004400002046
:102620002DE9F04104460E4615461F464FF00008BE
:1026300014B10DB1012000E0002020B9A72208A1AB
:102640000CA000F0F5F8207938B9A06928B13A4615
:1026500029463046A369984780464046BDE8F08148
:10266000557365725C5372635C6465766963652E4D
:10267000630000004572726F723A25732C25640D59
:102680000A0000002DE9F041074C206840F01000DE
:1026900020600A27002597FBF5F6314603A000F0DD
:1026A000C7F8BDE8F081000014ED00E07A3A256437
:1026B0000A000000FDF7ACFFFEF7BEFC00E000BE24
:1026C000FDE700002DE9F0478146FEF793FAA9F1F6
:1026D000180428492068884202D04FF0FF3843E0B0
:1026E000606820F000416FF00040A043814204D1B7
:1026F00001216068B1EBD07F02D04FF0010833E0D8
:10270000606820F0004060602746E0684068C00FC5
:1027100078B9E668304600F053FAA168B06818301E
:102720000844A060F068E060F06808B1F0680461F7
:102730002746206998B120694068C00F78B925699B
:10274000284600F03DFAA968A06818300844A8603F
:10275000E06808B1E0680561E068E8602F46384647
:1027600000F0FEF94FF00008FEF734FD4046BDE8EA
:10277000F08700005AEFCDAB2DE9F04107464FF04E
:102780000008FEF737FA07F0070008B1012000E063
:10279000002000EBD700C600304600F059F904468F
:1027A00014B94FF000082AE0204600F009FA04F1BD
:1027B0001808A01900F11805A068801B1838A86037
:1027C000A660606820F0004000F1004060606FF09B
:1027D0000040A843696860F31E016960686820F0E2
:1027E00000406860084828602C61E068E860E068A4
:1027F00008B1E0680561E560284600F0B1F9FEF730
:10280000E9FC4046BDE8F0815AEFCDAB30B5034658
:102810000C46194603B10AB9002030BD01E001F8A9
:10282000014B101EA2F10102F9D11846F5E7000094
:102830000FB42DE9F04F8DB0242103A8FDF7AFFCB4
:1028400017A80290C8E016980078252804D0169999
:10285000087800F0CFF8BCE01698401C169000787D
:10286000662854D008DC582815D0622840D0632848
:102870007DD064287CD11DE06F282AD0732802D037
:102880007828F7D106E0029840C80290304600F060
:10289000B7F89CE000BF029800680C900298001DF9
:1028A0000290102203A90C98FFF72CFD03A800F05A
:1028B000A7F88CE0029800680C900298001D029026
:1028C0000A2203A90C98FFF71DFD03A800F098F851
:1028D0007DE0029800680C900298001D029008228A
:1028E00003A90C98FFF70EFD03A800F089F86EE02D
:1028F000029800680C900298001D0290022203A921
:102900000C98FFF7FFFC03A800F07AF85FE002984C
:10291000C01D20F00700029030C8029A08320292CF
:1029200020462946FDF770FD0C900A2203A90C9859
:10293000FFF7E8FC03A800F063F82E2000F05AF837
:102940000022134620462946FDF7AAFD15D20C9811
:10295000FDF749FD074622462B46FDF7CFFC002236
:10296000234BCDE90001FDF7CCFC824601E01FE0DE
:1029700028E0FDF768FD0C9011E00C98FDF733FDA1
:10298000074622462B46FDF7B6FC82460022184B2E
:10299000FDF7B7FCCDE90001FDF755FD0C900A22CB
:1029A00003A90C98FFF7AEFC03A800F029F80EE08D
:1029B000029810F8041B01F0FF090290484600F04D
:1029C00019F804E01699087800F014F800BF00BF69
:1029D00000BF1698401C16901698007800287FF4C7
:1029E00032AF02900DB0BDE8F00F5DF814FB0000AF
:1029F000D012634110B504462046FFF71BFB10BD03
:102A000010B5044604B910BD03E014F8010BFFF73C
:102A1000F1FF20780028F8D100BFF4E7024601E07A
:102A2000521C491C10780B78984202D1107800286B
:102A3000F6D110780B78984201DD012070471078AC
:102A40000B78984202DA4FF0FF30F7E70020F5E705
:102A500070B5054600240F48006800680E4988429A
:102A600001D1012000E0002020B981220BA10FA09C
:102A7000FFF7DEFE0748046807E005F11800A168CB
:102A8000814201D9204670BD6469002CF5D12046F1
:102A9000F9E700006C0000205AEFCDAB557365726A
:102AA0005C5372635C686561702E63004572726F7F
:102AB000723A25732C25640D0A00000049E00024B9
:102AC00041E0C4EBC400234901EB800000790128F8
:102AD00037D1C4EBC40001EB80004079012830D12C
:102AE000C4EBC4011B4A02EB810148698047002006
:102AF000C4EBC401174A02EB81010871C4EBC400A6
:102B0000114601EB8000807C012813D1C4EBC40086
:102B100001EB8000C068104909680844C4EBC40197
:102B200002EB81018860C4EBC40102EB8100FEF777
:102B30004FFF06E00020C4EBC401064A02EB81010E
:102B40004871601C84B2032CBBDB04480088FEF78C
:102B50005DF8B4E79C000020580000203C000020F5
:102B6000164A126812B9154A106025E0134B8268A4
:102B70001B689B689A4205D2104A126842610F4A4C
:102B8000106019E00D4A11680DE082688B689A4266
:102B900008D382684B699B689A4203D84A694261AC
:102BA000486103E049694A69002AEED100BF4A69D9
:102BB00012B9486100224261704700006C00002099
:102BC00001464A6822F00042114B1B685B6823F003
:102BD00000439A4205D10E4A126852690C4B1A60A2
:102BE00014E00B4A10680DE04269526822F000427E
:102BF0004B6823F000439A4203D142695269426113
:102C000003E040694269002AEED100BF704700002E
:102C10006C00002086B00020059004900024FCE0A9
:102C20007EA0FFF705FE86480078362879D008DCBC
:102C3000A0F13100052870D2DFE800F00C1D293D1D
:102C4000570037286AD0382869D0392868D06128D9
:102C500063D1D4E0FFF716FD7A480088FEF708FF3D
:102C600079480088FEF704FF78A0FFF7E1FD002017
:102C700073490870CCE073480088FEF727FF72485C
:102C80000088FEF723FF00206D490870C0E074A0A3
:102C9000FFF7C6FB04463CB92046FFF7F3FB18B923
:102CA00070A0FFF7C5FD02E074A0FFF7C1FD002092
:102CB00063490870ACE02046FFF710FC00220121B8
:102CC0002046FFF77FFB012304AA00212046FFF7DF
:102CD00037FC2046FFF74CFB9DF810106CA0FFF767
:102CE000A7FD00205649087092E00020059020467C
:102CF000FFF7F4FB002211462046FFF763FB012398
:102D000005AA00212046FFF78BFC2046FFF730FB89
:102D100000204B4908707BE003E078E018E036E0E3
:102D200057E0012005902046FFF7D8FB002211460E
:102D30002046FFF747FB012305AA00212046FFF7A5
:102D40006FFC2046FFF714FB00203D4908705FE050
:102D5000012040F6B83103460246CDE900100A21B1
:102D6000504800F04DFB18B14FA0FFF761FD02E0A5
:102D700053A0FFF75DFD59A0FFF75AFD49480168D0
:102D80005BA0FFF755FD00202D49087040E00120B1
:102D900041F28833042203A900905D480068FDF7E2
:102DA00059FF18B15BA0FFF743FD02E062A0FFF7F7
:102DB0003FFD4AA0FFF73CFD0398FDF75DFB05468C
:102DC0002A460B4665A0FFF733FD00201C4908701A
:102DD0001EE0012341F288326A491846FEF7D6FA0E
:102DE00018B169A0FFF724FD02E06EA0FFF720FDF7
:102DF00074A0FFF71DFD00201149087008E0764817
:102E00000088FDF703FF00200D49087000E000BFB7
:102E100000BF4FF47A70FEF7C1F801E7313131316C
:102E20003131313131313131313131313131313192
:102E300031313131313131313131310D0A00000060
:102E4000140000201A0000201C000020537461723E
:102E5000745F536F66745F54696D65720D0A00008C
:102E60004C4544004C45442064657669636520699F
:102E700073206661696C200D0A0000004C454420F7
:102E8000646576696365206973204F4B200D0A00E5
:102E900072785F627566666572203D2025640D0A52
:102EA000000000007C0000205461736B31207761CA
:102EB0006974204576656E74204F4B200D0A000022
:102EC0005461736B312077616974204576656E7447
:102ED000204661696C200D0A000000005461736B8C
:102EE0003120BDE2B3FDD7E8C8FB200D0A00000089
:102EF0005461736B312077616974206576656E74F7
:102F00002064617461203D2025580D0A00000000F6
:102F1000200000205461736B312051756575652068
:102F20006D657373616765205265636569766520B9
:102F30004F4B200D0A0000005461736B3120517516
:102F4000657565206D65737361676520526563659E
:102F5000697665204661696C200D0A005461736BC7
:102F600031205175657565206D65737361676520E6
:102F7000726563656976652064617461203D202512
:102F8000660D0A00700000205461736B3520536594
:102F90006D6170686F7265312054616B65204F4BB5
:102FA000200D0A005461736B352053656D617068A4
:102FB0006F7265312054616B65204661696C200D2C
:102FC0000A0000005461736B3520BDE2B3FDD7E801
:102FD000C8FB200D0A000000160000201CB5234885
:102FE000019041E022A0FFF723FC2A4800786228E4
:102FF00006D063280CD0642820D065282ED125E087
:1030000001212548FEF7E4FA00202249087026E055
:103010000198FDF731FA044622460B461FA0FFF740
:1030200007FC01200023042201A900901F4800682A
:10303000FDF74CFE00201749087010E01C490120E4
:10304000FEF706F900201349087008E019480088C7
:10305000FEF7CCF800200F49087000E000BF00BF69
:103060004FF47A70FDF79AFFBCE70000D00F49409B
:103070003232323232323232323232323232323230
:103080003232323232323232323232323232320D45
:103090000A000000140000207C00002051756575B6
:1030A0006553656E642025660D0A0000200000202F
:1030B00070000020160000202DE9F04157480068FC
:1030C00000EB400101EBC000554901EB8000806935
:1030D000A0F1180653A0FFF7ABFB5048006800EBC7
:1030E000400202EBC0004E4A02EB800041685AA049
:1030F000FFF79EFB4948006800EB400202EBC0006E
:10310000474A02EB8000818B5AA0FFF791FB61498F
:103110003068884202D060A0FFF78AFB65A0FFF705
:1031200087FBFCF7EDFF044621686FA0FFF780FBEB
:10313000616870A0FFF77CFBA16871A0FFF778FBC6
:10314000E16872A0FFF774FB216973A0FFF770FBC1
:10315000616974A0FFF76CFBA16975A0FFF768FBBC
:10316000E16976A0FFF764FB214677A0FFF760FBDB
:10317000FCF7CCFF0746394678A0FFF759FB00BFA4
:10318000EFF314800746394679A0FFF751FB00BFE3
:10319000EFF31180074639467AA0FFF749FB00BFDD
:1031A000EFF31080074639467BA0FFF741FB00BFD5
:1031B000EFF31380074639467CA0FFF739FB80A068
:1031C000FFF736FB00251BE01448006800EB4003C6
:1031D00003EBC000124B03EB8000806950F8252000
:1031E0000E48006800EB400303EBC0000C4B03EB00
:1031F0008000806900EB85017BA0FFF719FB6D1C47
:103200000648006800EB400101EBC000044901EBF7
:103210008000808BA842D7D8BDE8F0815C000020F8
:103220001C0100203D3D3D3D3D3D3D3D3D3D3D3D85
:103230006D696E6952544F53207461736B20696ECF
:10324000666F726D6174696F6E3D3D3D3D3D3D3D04
:103250003D3D3D3D3D0D0A0043757272656E742023
:103260007461736B206E616D652069732025730D29
:103270000A0000007461736B20737461636B2073C8
:10328000697A6520697320256420776F7264730DF5
:103290000A0000005AEFCDAB7461736B2073746148
:1032A000636B206973206F766572666C6F770D0AA9
:1032B000000000003D3D3D3D3D3D3D3D3D3D4D431C
:1032C0005520636F726520726567697374657273E8
:1032D00020696E666F726D6174696F6E3D3D3D3D34
:1032E0003D3D3D0D0A0000005230203A2030782547
:1032F000580D0A005231203A20307825580D0A0026
:103300005232203A20307825580D0A005233203AA4
:1033100020307825580D0A005231323A2030782575
:10332000580D0A004C52203A20307825580D0A00DA
:103330005043203A20307825580D0A005053523A15
:1033400020307825580D0A0050535020202020208E
:10335000203A20307825580D0A0000004D535020A7
:1033600020202020203A20307825580D0A00000027
:10337000434F4E54524F4C20203A20307825580D60
:103380000A0000004241534550524920203A203063
:103390007825580D0A0000005052494D41534B20EA
:1033A000203A20307825580D0A0000004641554C3F
:1033B000544D41534B3A20307825580D0A000000F7
:1033C0003D3D3D3D3D3D3D3D3D3D3D3D3D7461739C
:1033D0006B20737461636B3D3D3D3D3D3D3D3D3D27
:1033E0003D3D3D3D3D0D0A00616464723A307825F3
:1033F000582C20646174613A307825580D0A000019
:103400002DE9F04704460D4616469846DDE9089A30
:103410000027FDF719F93EB920682840A84201D1DC
:10342000012007E0002005E02068284008B10120C5
:1034300000E000200746012F36D0BAF1000F32D04D
:10344000B9F1000F01D100272EE0201D1D490968A8
:1034500040F8215010301B49096846540121001DD5
:10346000184A126820F81210FDF7FEF84846FDF7DA
:1034700095FDFDF7E9F8002104F11800114A1268E2
:1034800020F812103EB920682840A84201D101203E
:1034900007E0002005E02068284008B1012000E096
:1034A0000020074600E00027B8F1010F04D1012FEA
:1034B00002D12068A8432060FDF7D6F83846BDE861
:1034C000F08700005C000020E834000800000020C5
:1034D00070000000E6220008583500087000002047
:1034E00070150000F622000800000000010203042D
:1034F0000102030406070809020406080000000090
:1035000000000000000000000000000000A24A04CB
:103510000000000000000000010203040607080983
:10352000000000000000000000000000000000009B
:10353000000000000000000000000000000000008B
:10354000000000000000000001000000000000007A
:08355000000000000000000073
:04000005080000ED02
:00000001FF
