:020000040800F2
:100000000016002021010008850E0008D90A00080A
:10001000810E000855090008CB26000800000000EA
:100020000000000000000000000000003301000894
:100030007B0900080000000045010008F51F0008CA
:100040003B0100083B0100083B0100083B010008A0
:100050003B0100083B0100083B0100083B01000890
:100060003B0100083B0100083B0100083B01000880
:100070003B0100083B0100083B0100083B01000870
:100080003B0100083B0100083B0100083B01000860
:100090003B0100083B0100083B0100083B01000850
:1000A0003B0100083B0100083B0100083B01000840
:1000B0003B0100083B010008000000003B01000874
:1000C0003B01000800000000000000003B010008A8
:1000D00000000000D92400083B01000800000000D7
:1000E0003B0100083B0100083B010008DFF80CD091
:1000F00000F074FA00480047012B000800160020A9
:10010000EFF30980704780F309887047EFF30880A8
:10011000704780F30888704740BA7047C0BA70478C
:100120000648804706480047FEE7FEE7FEE7FEE791
:10013000FEE7FEE7FEE7FEE7FEE7FEE7FD1F00083D
:10014000ED000008EFF3108272B6EFF3098020E9AA
:10015000F00F08490C68084B43F82400074C24684A
:100160000C6053F82400B0E8F00F80F3098882F3A4
:1001700010887047340000209801002038000020CB
:10018000D2B201E000F8012B491EFBD270470022D9
:10019000F6E710B513460A4604461946FFF7F0FF86
:1001A000204610BD2DE9FE4F804681EA0300C00FB6
:1001B0000C46009021F0004123F00045B8EB02000E
:1001C000A94105D24046214690461C460B460246B0
:1001D00023F00040104347D0270DC7F30A00C3F3B4
:1001E0000A510290401A019040286BDAC3F31300C1
:1001F00040F4801B0098924620B10023D2EB030A02
:1002000063EB0B0B01985946C0F14002504600F0D9
:1002100057F906460D4650465946019A00F06FF9C7
:1002200010EB08006141002487EA115284EAE77369
:100230001A4340D0009A62B3019A012A4FEA07524A
:1002400015DC001B61EB02014FF0004202EA07528D
:10025000CDE90042001C41F5801132462B4600F0EA
:100260006FF903B0BDE8F08F40462146F9E7001B67
:1002700061EB0201001C41F5801300185B4120185E
:10028000A2F5001747EB030140EAD570B6196D419E
:1002900011E06D084FEA360645EAC0754FEA07528D
:1002A000001B61EB0201001C41F5801149084FEA77
:1002B00030000019514132462B4603B0BDE8F04FE3
:1002C00000F02FB90098012240000023D0EB020279
:1002D00063EBE073009821464FEAE074B8EB00004E
:1002E00061EB0401E9E783F000435BE781F0004143
:1002F00058E72DE9FE4F81EA030404F0004421F0A1
:10030000004100944FF0000B23F0004350EA010439
:100310005ED052EA03045BD0C3F30A54C1F30A551A
:100320002C44A4F2F3340194A0FB0254C1F3130152
:1003300041F48011C3F3130343F4801301FB02441F
:1003400000FB034E840A970A44EA815447EA835724
:10035000A4FB076802958D0A05FB07854FEA932CDD
:1003600004FB0C542705029D4FEA065847EA16374E
:10037000B5EB08056EEB070C870E920E47EA811766
:1003800042EA8312A7FB0201B6EB0B0164EB000407
:100390002B0D43EA0C335E1844EB1C50DA465146F1
:1003A000E7FB0201C5F313044FEA0B3343EA14538E
:1003B0004FEA0432019C43EA0603A4F10C040294C0
:1003C000009CCDE900B400F0BBF803B0BDE8F08FAD
:1003D00000200146F9E70EB5C10F80EAE07008443D
:1003E000CA07002140F233438DE80E000A460B464F
:1003F00000F0A6F803B000BD70B5C1F30A5201F0D9
:1004000000450024C1F3130140F2FF3341F4801191
:100410009A4201DA002070BD40F233439A42A2F2C0
:10042000334203DC524200F05AF800E090402C4383
:10043000F1D0404270BDC1F30A5210B5C1F31301AF
:1004400040F2FF3341F480119A4201DA002010BDDE
:1004500040F233439A42A2F2334203DC524200F0AC
:100460003EF810BD904010BD00F0004230F000405A
:100470000AD0C10D01F56071C0F3160042EA0151C6
:10048000C208400711437047002001467047000032
:1004900030B5041E71F1000404DB4FF0004440420B
:1004A00064EB0101141E73F1000405DB1C464FF0E0
:1004B0000043524263EB0403994208BF904230BDAF
:1004C000202A04DB203A00FA02F100207047914014
:1004D000C2F1200320FA03F3194390407047202A09
:1004E00004DB203A21FA02F00021704721FA02F3DE
:1004F000D040C2F120029140084319467047202A9B
:1005000006DBCB17203A41FA02F043EAE07306E03B
:1005100041FA02F3D040C2F120029140084319464B
:10052000704710B5141E73F1000408DA401C41F145
:10053000000192185B411A4301D120F0010010BD67
:100540002DE9F04D92469B4611B1B1FA81F202E0DD
:10055000B0FA80F220329046FFF7B2FF04460F4611
:1005600040EA0A0041EA0B0153465A46084313D0B9
:10057000114653EA010019D0C8F140025046FFF776
:10058000AEFF05460E46504659464246FFF798FFD5
:10059000084305D0012004E020463946BDE8F08D2F
:1005A0000020054346EAE0762C4337430A9863056A
:1005B000E40AA0EB08000022FD0A44EA47540A308E
:1005C00002D500200146E9E7010510196941DDE97E
:1005D000084500196941BDE8F04DA2E7064C074DFA
:1005E00006E0E06840F0010394E807009847103403
:1005F000AC42F6D3FFF77EFD74370008943700084D
:1006000010B501F023FF00F06FFA00F0C7FA10BD3B
:100610002DE9F04104465648006800EB400101EB2B
:10062000C000544901EB80008069A0F1180652A077
:1006300002F0DEFB4E48006800EB400202EBC00017
:100640004C4A02EB8000416858A002F0D1FB4848B8
:10065000006800EB400202EBC000464A02EB80005B
:10066000818B59A002F0C4FB5F493068884202D0F8
:100670005EA002F0BDFB64A002F0BAFB21686FA08F
:1006800002F0B6FB616870A002F0B2FBA16871A035
:1006900002F0AEFBE16872A002F0AAFB216973A030
:1006A00002F0A6FB616974A002F0A2FBA16975A02B
:1006B00002F09EFBE16976A002F09AFB214677A04A
:1006C00002F096FBFFF722FD0746394678A002F0BC
:1006D0008FFB00BFEFF314800746394679A002F084
:1006E00087FB00BFEFF31180074639467AA002F07E
:1006F0007FFB00BFEFF31080074639467BA002F076
:1007000077FB00BFEFF31380074639467CA002F069
:100710006FFB80A002F06CFB00251BE01448006812
:1007200000EB400303EBC000124B03EB8000806939
:1007300050F825200E48006800EB400303EBC00092
:100740000C4B03EB8000806900EB85017BA002F07D
:100750004FFB6D1C0648006800EB400101EBC00038
:10076000044901EB8000808BA842D7D8BDE8F08116
:1007700034000020BC0000203D3D3D3D3D3D3D3D61
:100780003D3D3D3D6D696E6952544F532074617318
:100790006B20696E666F726D6174696F6E3D3D3D71
:1007A0003D3D3D3D3D3D3D3D3D0D0A004375727271
:1007B000656E74207461736B206E616D6520697362
:1007C0002025730D0A0000007461736B207374613F
:1007D000636B2073697A6520697320256420776FC5
:1007E0007264730D0A0000005AEFCDAB7461736B35
:1007F00020737461636B206973206F766572666C19
:100800006F770D0A000000003D3D3D3D3D3D3D3D03
:100810003D3D4D435520636F726520726567697376
:100820007465727320696E666F726D6174696F6E44
:100830003D3D3D3D3D3D3D0D0A0000005230203A1A
:1008400020307825580D0A005231203A2030782582
:10085000580D0A005232203A20307825580D0A00EF
:100860005233203A20307825580D0A005231323A5E
:1008700020307825580D0A004C52203A2030782537
:10088000580D0A005043203A20307825580D0A00B0
:100890005053523A20307825580D0A0050535020BA
:1008A00020202020203A20307825580D0A00000012
:1008B0004D53502020202020203A20307825580DFC
:1008C0000A000000434F4E54524F4C20203A203033
:1008D0007825580D0A0000004241534550524920E6
:1008E000203A20307825580D0A0000005052494D1A
:1008F00041534B20203A20307825580D0A00000043
:100900004641554C544D41534B3A20307825580DB3
:100910000A0000003D3D3D3D3D3D3D3D3D3D3D3DF1
:100920003D7461736B20737461636B3D3D3D3D3D70
:100930003D3D3D3D3D3D3D3D3D0D0A0061646472E0
:100940003A307825582C20646174613A3078255803
:100950000D0A000000BFFEE710B5102002F0ECF910
:10096000044644B10020206060600522002104F1AB
:10097000080002F02BFA204610BD704772B670478F
:1009800062B6704700BFEFF310800146012080F38C
:10099000108800BF0846704700BF80F3108800BF72
:1009A00070472DE9F0410246002500260020002373
:1009B0000024002791F803C00CF00F0591F803C044
:1009C0000CF0100CBCF1000F03D091F802C04CEAFF
:1009D000050591F800C0BCF1000F31D0146800206B
:1009E0002BE04FF0010C0CFA00F3B1F800C00CEA58
:1009F00003069E4220D183004FF00F0C0CFA03F740
:100A0000BC4305FA03FC4CEA040491F803C0BCF1B2
:100A1000280F06D14FF0010C0CFA00FCC2F814C0EC
:100A20000AE091F803C0BCF1480F05D14FF0010C6A
:100A30000CFA00FCC2F810C0401C0828D1D3146086
:100A4000B1F800C0BCF1FF0F34DD546800202EE087
:100A500000F1080C4FF0010808FA0CF3B1F800C0DF
:100A60000CEA03069E4221D183004FF00F0C0CFAD2
:100A700003F7BC4305FA03FC4CEA040491F803C0F5
:100A8000BCF1280F05D100F1080C08FA0CF8C2F8E7
:100A9000148091F803C0BCF1480F07D100F1080C95
:100AA0004FF0010808FA0CF8C2F81080401C082822
:100AB000CED35460BDE8F0810246002093680B401D
:100AC0000BB1012000E000207047016170470AB1BE
:100AD000016100E041617047FFF712FB0446FFF738
:100AE00097FD00BFFEE7000010B5134820F0070493
:100AF0004FF480520021C01F02F068F9C4F5805005
:100B00000D49C91F08441838A0606FF00040A04389
:100B1000616860F31E016160606820F00040606001
:100B2000064820600020E0602061606104480460A5
:100B30000448046010BD0000070200205AEFCDAB4E
:100B40004C00002050000020704701E0FFF7FCFF40
:100B5000FCE7000038B504460D46E0B210B10128AC
:100B600008D103E010208DF8030007E004208DF881
:100B7000030003E010208DF8030000BF00BF4FF416
:100B80008050ADF8000003208DF80200694602484D
:100B9000FFF707FF38BD0000000C014010B509A0A9
:100BA00009490860094888600020C8600861084851
:100BB0004861084888610848C861084601F00CFF90
:100BC00010BD00004C45440090000020DD0B0008E3
:100BD000150C0008310C0008550B000808B5012160
:100BE000082000F021FB4FF48050ADF800001020E9
:100BF0008DF8030003208DF8020069460448FFF7D2
:100C0000D0FE4FF480510248FFF75FFF08BD00009F
:100C1000000C014070B506460C4615464FF4805155
:100C20000248FFF749FF2070284670BD000C0140C4
:100C300070B506460C46154622784FF4805102489E
:100C4000FFF745FF284670BD000C0140244800789E
:100C5000F0BB2448006800680088234908602348E6
:100C60000068096888423AD01F48006800EB4001DC
:100C700001EBC0001E4951F8200000881D49098879
:100C8000884224D01848006800EB400101EBC00006
:100C9000174951F82000008817490988884216D062
:100CA0001148006800EB400101EBC000104901EB66
:100CB000800040691149096808440B49096801EB43
:100CC000410202EBC1010A4A02EB8101086100E026
:100CD00005E00B48006840F0805009490860704703
:100CE0003C000020280000203800002034000020B4
:100CF000BC0000202E0000202C000020300000202E
:100D000004ED00E0F0B506460C4617462146304695
:100D100000F06CF816B1012E60D126E0E068314990
:100D20000968C968884205D22E48006860622D486B
:100D3000046019E02B4805680DE0E068E968884226
:100D400008D3E068696AC968884203D8686A606243
:100D50006C6203E06D6A686A0028EED100BF686AC1
:100D600010B96C620020606239E0207AA8B3607A22
:100D700098B360891C4909684989884205DD1A4889
:100D80000068A0621848046027E0174805681BE067
:100D900067B960896989884215DC6089A96A4989CF
:100DA000884210DDA86AA062AC6210E0608969899F
:100DB000884208DC6089A96A4989884203DBA86AFD
:100DC000A062AC6203E0AD6AA86A0028E0D100BF6F
:100DD000A86A10B9AC620020A06200E000BF00BFAA
:100DE000F0BD0000240000202800002010B50246BD
:100DF00012B1012A3CD11DE01F4C0B682468246805
:100E0000A34205D11C4B1B685B6A1B4C236010E09E
:100E1000194B186809E0436A1B680C68A34203D1A8
:100E2000436A5B6A436203E0406A436A002BF2D183
:100E300000BF1EE0114C0B6824682468A34205D152
:100E40000E4B1B689B6A0D4C236010E00B4B18681F
:100E500009E0836A1B680C68A34203D1836A9B6A1A
:100E6000836203E0806A836A002BF2D100BF00E056
:100E700000BF00BF10BD000024000020280000209B
:100E800000BFFEE7704708B54FF4E06000F048F897
:100E900025208DF8000000208DF8010001208DF83C
:100EA00002008DF80300684600F002F808BD00005B
:100EB00070B5002100230F22C47804B3154C2468B8
:100EC00004F4E064C4F5E064210AC1F10403CA40FB
:100ED000447804FA03F184781440214309010E4C4C
:100EE0000678A155047804F01F050124AC4005786C
:100EF0006D11AD0005F1E025C5F8004109E0047869
:100F000004F01F050124AC40044D0678761145F825
:100F1000264070BD0CED00E000E400E080E100E060
:100F200002490143024A1160704700000000FA05BF
:100F30000CED00E010B5002807DA0A07140E054A88
:100F400000F00F031B1FD45403E00A07130E024ADC
:100F5000135410BD18ED00E000E400E010B5FFF7F9
:100F600011FD04460120034908702046FFF714FDD7
:100F700010BD00003C00002070B50446FFF702FDE4
:100F80000546002004EB440101EBC4010C4A02EBCE
:100F90008101487204EB440101EBC40102EB8101C1
:100FA000087204EB440000EBC40002EB8001012056
:100FB000FFF71CFFFFF74AFE2846FFF7EDFC70BD68
:100FC000BC0000202DE9F04704460F4690461D4620
:100FD000DDF820900026FFF7D5FC824642463946D0
:100FE000204600F0C7F80646012E22D0B9F1000FC6
:100FF0001ED00DB900261CE0012104F10800104AA2
:10100000126881545046FFF7C7FC284600F086F965
:10101000FFF7B8FC8246002104F10800084A126874
:10102000815442463946204600F0A4F8064600E0C6
:1010300000265046FFF7B0FC3046BDE8F0870000C0
:10104000340000202DE9F84F0646894692461F4697
:10105000DDF828B000BF4348008800EB400101EBF9
:10106000C000414901EB8005FFF78CFC009052461F
:101070004946304600F0A9F88046B8F1010F24D067
:10108000BBF1000F1FD017B94FF000081DE0012180
:1010900006F10800354A126881540098FFF77CFC7D
:1010A000384600F03BF9FFF76DFC0090002106F197
:1010B00008002E4A1268815452464946304600F0D4
:1010C00084F8804601E04FF00008B8F1010F43D1E9
:1010D000002424E006F10800005D01281DD104EB86
:1010E000440000EBC400204951F82000008820494A
:1010F0000988884211D0688904EB440101EBC401DE
:10110000194A02EB81014989884206DA04EB44005E
:1011100000EBC400114601EB8005601C84B2052C75
:10112000D8DB1048008800EB400101EBC0000E49FD
:1011300001EB8000A8420FD000212868028806F148
:101140000800815401202872687201222946104645
:10115000FFF7D8FDFFF77AFD0098FFF71DFC40462A
:10116000BDE8F88F2C000020BC00002034000020D7
:10117000440000202DE9F04704460E469046D4F87E
:1011800000903746606820B9206810B90020BDE89B
:10119000F0872068056803E015F8010B07F8010BDC
:1011A000B8F10000A8F10108F6D12068406820607D
:1011B000D9F8000001F066FD484601F063FD2068A3
:1011C00008B9002060600120E1E72DE9F0470446FE
:1011D0000F469146B846484601F0AEFD0646082047
:1011E00001F0AAFD0546B8F1000F01D005B116B90E
:1011F0000020BDE8F087606818B9206808B925604C
:1012000001E0606845606560002068602E6003E072
:1012100018F8010B06F8010BB9F10000A9F101095A
:10122000F6D10120E5E7000029B1064A92690243A0
:10123000044B9A6104E0034A92698243014B9A612C
:10124000704700000010024030B500210022002449
:1012500000232D4D6D6805F00C0121B1042905D046
:10126000082923D105E0294D056022E0274D0560BE
:101270001FE0254D6D6805F47012234D6D6805F46F
:101280008034022505EB92421CB9214D554305607F
:101290000BE01D4D6D6805F400351DB11C4D554327
:1012A000056002E0194D5543056002E0174D0560E9
:1012B00000BF00BF144D6D6805F0F0010909154D20
:1012C0006B5C0568DD4045600F4D6D6805F4E061BD
:1012D000090A104D6B5C4568DD4085600A4D6D68FC
:1012E00005F46051C90A0B4D6B5C4568DD40C56073
:1012F000054D6D6805F44041890B074D6B5CC56871
:10130000B5FBF3F5056130BD0010024000127A0014
:1013100000093D00000000201000002070B50446C8
:10132000FFF730FB054600202149096801EB410227
:1013300002EBC1011F4A02EB81010872601CD0B1AF
:101340001D48006820441A49096801EB410202EB7C
:10135000C101184A02EB8101C8601548006800EB22
:10136000400202EBC000134A02EB80010122002080
:10137000FFF7C8FC0AE000200D49096801EB4102B3
:1013800002EBC1010B4A02EB810148720848006878
:1013900000EB400202EBC000064A02EB8001012094
:1013A000FFF724FDFFF752FC2846FFF7F5FA70BD62
:1013B00034000020BC000020300000201FB543484E
:1013C00032214FF0FF3200920023CDE9012103903A
:1013D00001223FA1414800F0ADFE414864214FF099
:1013E000FF3200920023CDE90121039001223DA1AB
:1013F0003F4800F09FFE3F4864214FF0FF3200233A
:10140000CDE90032CDE90210130C00223AA13F4889
:1014100000F090FE00F022FE31484FF0FF31002333
:101420000122CDE900101946394800F09DFB002447
:1014300030E004EB440000EBC400364951F82000D2
:10144000048004EB440000EBC40001EB80008169E0
:1014500004EB440000EBC4002E4A02EB8000808BBA
:1014600001EB800040382C4941F8240004EB440093
:1014700000EBC400114601EB8000006A264951F8D8
:10148000241088634FF08070234951F82410C863FA
:10149000601C84B2052CCCDB00F03EFF00F0DAFBD0
:1014A000FFF76CFAFFF75AFD01F05CFB0B48008870
:1014B0001A4908601849194A126851F8221001F1B6
:1014C0004000FEF720FE01F023FB1FBDA11F000816
:1014D00073746172745F7461736B00002E0000207E
:1014E0004B0B000849646C655F7461736B0000000E
:1014F0002C0000208930000874696D65725F677583
:101500006172645F7461736B00000000440000202E
:1015100046000020BC00002098010020340000207C
:1015200010B5FFF72FFA04464D480068401C4C499F
:1015300008604C48006800EB400101EBC0004A49DC
:1015400001EB800000694649096888424BD2454852
:10155000006800EB400101EBC000434901EB800053
:10156000007A01283FD13F48006800EB400101EBC1
:10157000C0003D4901EB8000806A40893949096813
:1015800001EB410202EBC101374A02EB81014989BB
:10159000884228D13348006800EB400101EBC000CD
:1015A000114651F8200000883049098888421AD035
:1015B0002C48006800EB400101EBC000114651F8D7
:1015C000200000882A49098888420CD025480068F4
:1015D00000EB400202EBC000234A02EB8001002234
:1015E0000120FFF78FFB23480068C0681C49096889
:1015F000884212D201201F490968087201221D4841
:1016000001681046FFF77EFB1A480068406A20B167
:1016100018480068406A17490860174800688068E1
:101620000F490968884215D20120134909680871D9
:10163000114800684079012803D11048008800F063
:101640002DF80D480068806920B10B48006880695A
:1016500009490860FFF7FAFA2046FFF79DF910BD27
:101660003000002034000020BC0000202E000020AC
:101670002C00002024000020400000204400002016
:1016800010B5FFF77FF90446002003490870204693
:10169000FFF782F910BD00003C00002070B5044641
:1016A000FFF770F90546012004EB440101EBC4018A
:1016B0000D4A02EB8101487204EB440101EBC401C5
:1016C00002EB8101087204EB440000EBC40002EB62
:1016D000800101221046FFF715FBFFF7B7FA2846F5
:1016E000FFF75AF970BD0000BC000020032801D1AB
:1016F0000A6005E012B101230B6001E000230B60DA
:10170000704700002DE9F04107460D464A48008821
:1017100000EB400101EBC000484901EB8006FFF7F8
:1017200031F98046032F03D12868401C286001E06E
:1017300001202860012F35D1002430E005F1080098
:10174000005D012829D104EB440000EBC4003B49B3
:1017500051F8200000883A49098888421DD00021AC
:1017600005F108000155012004EB440101EBC4011F
:10177000324A02EB8101087204EB440101EBC4011F
:1017800002EB8101487204EB440000EBC40002EB61
:10179000800101221046FFF7B5FA601C84B2052CC7
:1017A000CCDB41E0002424E005F10800005D0128C5
:1017B0001DD104EB440000EBC400204951F8200087
:1017C00000881F490988884211D0708904EB4401C0
:1017D00001EBC401194A02EB81014989884206DA0A
:1017E00004EB440000EBC400114601EB8006601CD2
:1017F00084B2052CD8DB1048008800EB400101EBD7
:10180000C0000E4901EB8000B0420DD000213068CD
:10181000028805F1080081540120307270720122A3
:1018200031461046FFF76EFAFFF710FA4046FFF711
:10183000B3F8BDE8F08100002C000020BC000020BF
:10184000440000202DE9F04705460C4616461F4689
:101850004FF00008FFF796F881462068D0B1032DBD
:1018600003D12068401E206001E0002020604FF07E
:101870000108002F0DD04A480068A0804848006841
:1018800000EB400101EBC000464901EB80004089BC
:10189000E0807EE0002F7AD016B94FF0000878E0A3
:1018A000A08818B3E08808B33D48006800EB400109
:1018B00001EBC0003B4901EB80004089E188884290
:1018C00014DD022D12D13648006800EB400101EB17
:1018D000C000344901EB80004089A18801EB41023E
:1018E00002EBC1012F4A02EB81014881012104F181
:1018F00008002B4A126881544846FFF74DF83046DD
:10190000FFF70CFDFFF73EF88146002104F10800C7
:10191000234A12688154A088D0B1E088C0B1204821
:10192000006800EB400101EBC0001E4901EB8000A4
:101930004089E18888420BDD022D09D1E088A18829
:1019400001EB410202EBC101164A02EB8101488121
:101950002068C8B1032D03D12068401E206001E03B
:10196000002020604FF001080D480068A0800C485E
:10197000006800EB400101EBC0000A4901EB800068
:101980004089E08005E002E04FF0000801E04FF000
:1019900000084846FFF700F84046BDE8F087000021
:1019A00034000020BC00002010B500F001F810BD8C
:1019B0000CB50020019000903348006840F480305E
:1019C0003149086000BF3048006800F400300090E2
:1019D0000198401C0190009818B90198B0F5A06FCB
:1019E000F1D12948006800F4003010B101200090C6
:1019F00001E0002000900098012843D123480068AE
:101A000040F01000214908600846006820F00300FB
:101A100008600846006840F0020008601A48406804
:101A2000194948600846406848600846406840F4E4
:101A3000806048600846406820F47C104860084692
:101A4000406840F4E81048600846006840F0807044
:101A5000086000BF0C48006800F000700028F9D052
:101A60000948406820F0030007494860084640687C
:101A700040F00200486000BF0348406800F00C00DE
:101A80000828F9D10CBD00000010024000200240DF
:101A90002DE9F04705460F464FF00009FEF772FFAB
:101AA000824628680121B9400843286000244DE09F
:101AB00005F11E0030F81400012845D104EB440064
:101AC00000EBC400264951F8200000882549098808
:101AD000884239D0281D50F82460143010F8048052
:101AE000B8F1000F07D128683040B04201D1012081
:101AF00007E0002005E02868304008B1012000E040
:101B000000208146B9F1010F1ED1002105F11E0010
:101B100020F81410012004EB440101EBC401104A29
:101B200002EB8101087204EB440101EBC40102EBFA
:101B30008101487204EB440000EBC40002EB800119
:101B400001221046FFF7DEF8601C84B2052CAFDBE3
:101B5000FFF77CF85046FEF71FFFBDE8F087000056
:101B6000BC000020440000202DE9F04705460C464B
:101B700016461F46DDE9088927480088032801DA50
:101B8000012000E0002020B9432224A12CA001F074
:101B90002FF921480088C0EBC0002D4941F82050A2
:101BA0001D480088C0EBC00001EB800004711A489A
:101BB0000088C0EBC00001EB8000867416480088E6
:101BC000C0EBC00001EB8000078213480088C0EB27
:101BD000C00001EB8000C0F80C800F480088C0EB0B
:101BE000C00001EB800044710B480088C0EBC000CE
:101BF00001EB8000C0F8088007480088C0EBC000F7
:101C000001EB8000C0F8149003480088401C024992
:101C10000880BDE8F0870000480000206D696E690B
:101C200052544F535C4B65726E656C5C5372635CCF
:101C3000736F66745F74696D65722E6300000000D7
:101C40004572726F723A25732C25640D0A000000EC
:101C5000AC01002030B587B00024E2E0601C85B202
:101C6000DAE0C4EBC4008C4901EB8000008AC5EBCC
:101C7000C501894A02EB8101098A88427DDAC5EBF8
:101C8000C500114651F820000090C5EBC50001EBDE
:101C9000800000798DF80400C5EBC50001EB8000E1
:101CA00040798DF80500C5EBC50001EB8000806828
:101CB0000290C5EBC50001EB8000C0680390C5EB46
:101CC000C50001EB8000008AADF81000C5EBC5002F
:101CD00001EB8000807C8DF81200C5EBC50001EBA4
:101CE0008001D1E9050105900691C5EBC5001146BB
:101CF00001EB8000C4EBC40152F821100160C4EB79
:101D0000C400114601EB80000079C5EBC50102EB70
:101D100081010871C4EBC400114601EB80004079D9
:101D2000C5EBC50102EB81014871C4EBC40011464B
:101D300001EB80008068C5EBC50102EB8101886082
:101D4000C4EBC400114601EB8000C068C5EBC501BF
:101D500002EB8101C860C5EBC500114601EB8000B4
:101D6000C4EBC40102EB8101098A0182C4EBC40007
:101D7000114601EB8000807C00E04BE0C5EBC50123
:101D800002EB81018874C5EBC500114601EB8000B0
:101D9000C4EBC40102EB8102D2E90512C0E90512CD
:101DA000C4EBC4003C4901EB8000009901609DF840
:101DB0000400C4EBC401384A02EB810108719DF8AC
:101DC0000500C4EBC40102EB810148710298C4EB29
:101DD000C40102EB810188600398C4EBC40102EBEB
:101DE0008101C860C4EBC400114601EB8000BDF85E
:101DF000101001829DF81200C4EBC40102EB8101B6
:101E00008874C4EBC400114601EB80000599069A62
:101E1000C0E90512681C85B2032DFFF622AF601CD5
:101E200084B2032CFFF61AAF002407E0C4EBC40011
:101E3000194951F820000480601C84B2032CF5DBA2
:101E400015481649086000240DE0601CC0EBC00076
:101E5000114901EB8000C4EBC4010F4A02EB810180
:101E60008861601C84B2022CEFDB0020C4EBC4014B
:101E7000094A02EB81018861002408E0C4EBC40137
:101E8000054A02EB810000F00BF8601C84B2032CC1
:101E9000F4DB07B030BD0000AC01002040000020A2
:101EA00030B50446204600F029F8A06812490968B8
:101EB0008968884205D210480068A0610E48046015
:101EC00019E00D4805680DE0A068A968884208D3AC
:101ED000A068A9698968884203D8A869A061AC6133
:101EE00003E0AD69A8690028EED100BFA86910B968
:101EF000AC610020A06130BD4000002001460F4BC6
:101F00000A681B681B689A4205D10C4A12689269DC
:101F10000A4B1A6010E0094A106809E082691268E9
:101F20000B689A4203D182699269826103E08069F9
:101F30008269002AF2D100BF7047000040000020F3
:101F400070B50446FEF71EFD0546C4EBC4001249F9
:101F500001EB8000C068114909680844C4EBC40162
:101F60000D4A02EB81018860C4EBC40102EB8100E1
:101F7000FFF796FF0020C4EBC401074A02EB810182
:101F800008710120C4EBC40102EB810148712846AD
:101F9000FEF702FD70BD0000AC0100203000002003
:101FA00004480088FEF7E8FFFEF7EAFCFFF768FB4D
:101FB00000BFFEE72E00002070B50446FEF7E2FCED
:101FC0000546C4EBC4010A4A02EB8100FFF796FF05
:101FD0000020C4EBC401064A02EB81010871C4EB86
:101FE000C40102EB810148712846FEF7D5FC70BDA3
:101FF000AC01002010B5FFF793FA10BD10B51348DF
:10200000006840F001001149086008464068104926
:1020100008400E494860084600680E4908400B49D0
:1020200008600846006820F4802008600846406880
:1020300020F4FE0048604FF41F008860FFF7B4FCF6
:102040004FF000600449086010BD0000001002401D
:102050000000FFF8FFFFF6FE08ED00E01FB5FEF7F9
:102060007BFC214908600846006810B91FA000F0F9
:10207000BFFE012222491046FFF738FB21484FF4EA
:10208000FA7101231A46CDE9001000211E48FFF71E
:102090006BFD1E484FF47A7102230122CDE9001036
:1020A00000211B48FFF760FD1A4864214FF47A7243
:1020B0000023CDE90032CDE9021001231A4616A112
:1020C000174800F037F8174864214FF47A7200235C
:1020D000CDE90032CDE902100223012212A11448F9
:1020E00000F028F81FBD0000200000204372656149
:1020F00074205175657565204661696C0D0A000094
:1021000058000020D52300081A00002001240008F0
:102110001C000020E13100087461736B3100000085
:1021200016000020C93500087461736B320000008E
:10213000180000202DE9F05F06460F461546984628
:10214000DDE90AB9DDF830A05B480088052801DA2E
:10215000012000E0002020B94E2258A15FA000F02D
:1021600047FE5548008800EB400101EBC0005F4985
:1021700041F820605048008800EB400101EBC000AE
:102180005A4901EB800047604B48008800EB400152
:1021900001EBC000554901EB8000057246480088FC
:1021A00000EB400101EBC000504901EB800045729B
:1021B0004148008800EB400101EBC0004B4901EBB6
:1021C0008000A0F80A803C48008800EB400101EB49
:1021D000C000464901EB8000C0F80CB036480088CA
:1021E00000EB400101EBC000404901EB8000C0F86A
:1021F00014903148008800EB400101EBC0003B49DE
:1022000001EB8000C0F810904FEA8A0000F094FDC6
:102210002949098801EB410202EBC101334A02EB73
:10222000810188612448008800EB400101EBC00077
:10223000114601EB8000A0F81CA01F49098801EBA2
:10224000410202EBC101294A02EB81010D980862AB
:102250001948008800EB400101EBC000114601EB7A
:102260008000806918B300240DE0214812490988D4
:1022700001EB410202EBC1011C4A02EB81018969B9
:1022800041F82400641C0C48008800EB400101EB7D
:10229000C000164901EB8000808BA042E5D80648BB
:1022A0000088401C044908800120BDE8F09F11A06F
:1022B00000F09EFD0020F8E73E0000206D696E6989
:1022C00052544F535C4B65726E656C5C5372635C29
:1022D0006B65726E656C2E63000000004572726F54
:1022E000723A25732C25640D0A000000BC00002002
:1022F000EFBEADDE4E6F7420656E6F756768206D42
:10230000656D6F727920666F72207461736B2073D4
:102310007461636B210D0A0010B52B482B490860CE
:102320002B490860002420E0601C00EB400101EB19
:10233000C000254901EB800004EB440101EBC4011E
:10234000214A02EB81014862601C00EB400101EB75
:10235000C000114601EB800004EB440101EBC40115
:1023600002EB81018862601C84B2042CDCDB00205B
:1023700004EB440101EBC401134A02EB8101486202
:1023800004EB440101EBC40102EB810188620024EB
:1023900017E004EB440000EBC4000B4A02EB8001A1
:1023A00001221046FEF7AEFC04EB440000EBC40033
:1023B000054A02EB800101220020FEF7A3FC601C0D
:1023C00084B2052CE5DB10BDBC00002024000020F9
:1023D0002800002010B502A000F00AFD10BD00008A
:1023E00054696D6572305F63616C6C6261636B2010
:1023F00069732072756E6E696E670D0A00000000C9
:1024000010B502A000F0F4FC10BD000054696D6529
:1024100072315F63616C6C6261636B2069732072FF
:10242000756E6E696E670D0A0000000010B50446F7
:102430002146054800F045F900BF8021024800F020
:1024400073F80028F9D010BD0038014000B585B000
:10245000012144F20400FEF7E7FE4FF40070ADF8EE
:10246000100018208DF8130003208DF8120004A925
:102470001748FEF796FA4FF48060ADF8100004207C
:102480008DF8130004A91248FEF78BFA4FF4E130DF
:1024900000900020ADF80400ADF80600ADF808008B
:1024A000ADF80C000C20ADF80A006946094800F0B0
:1024B00097F8012240F22551064800F06CF80121FE
:1024C000044800F025F8FEF7DEFC05B000BD000072
:1024D000000801400038014010B540F2255107487E
:1024E00000F02FF848B1054800F0E6F804490870FC
:1024F0000846017803A000F07BFC10BD00380140C5
:1025000014000020434D44203D2025630D0A0000A7
:1025100021B1828942F40052828104E082894DF621
:10252000FF731A408281704702460020B1F5007F98
:1025300000D100BF13880B400BB1012000E0002048
:10254000704770B50246002400230025002040F6A5
:102550006A16B14200D100BFC1F3421501F01F035A
:10256000012606FA03F3012D02D19689334006E0D5
:10257000022D02D1168A334001E0968A33400C12B4
:10258000012606FA04F41688344013B10CB1012078
:1025900000E0002070BDF0B50346002400260025B1
:1025A000002040F66A17B94200D100BF1846C1F3B7
:1025B000421401F01F06012707FA06F5012C01D18C
:1025C0000C3004E0022C01D1103000E014301AB1BC
:1025D00007682F43076002E00768AF430760F0BD5C
:1025E0002DE9F04786B005460E460024A24600BFFE
:1025F000A1460027B08900B100BF2F462C8A4CF6B7
:10260000FF700440F08804432C82AC894EF6F3102E
:102610000440B08831890843718908430443AC8180
:10262000AC8A4FF6FF400440B0890443AC8201A855
:10263000FEF70AFE1F48874202D1DDF810A001E034
:10264000DDF80CA0A88900F4004040B10AEBCA00F4
:1026500000EB0A1031684900B0FBF1F807E00AEB23
:10266000CA0000EB0A1031688900B0FBF1F8642061
:10267000B8FBF0F004012009642101FB1089A8894E
:1026800000F4004040B1322000EBC900B0FBF1F093
:1026900000F00700044308E0322000EB0910642139
:1026A000B0FBF1F000F00F0004432C8106B0BDE850
:1026B000F08700000038014001468888C0F3080018
:1026C0007047C1F308028280704700BFFEE702E056
:1026D00008C8121F08C1002AFAD1704770470020AD
:1026E00001E001C1121F002AFBD17047F0B503467B
:1026F0000D4614462A4629460DB1022C01D201206E
:10270000F0BD002B06DA0A2C04D12D2001F8010BB4
:10271000521C5B4200BFB3FBF4F004FB1036B3FB6A
:10272000F4F30A2E04DA06F1300001F8010B03E09D
:1027300006F1370001F8010B002BECD100200870E6
:10274000491E05E00F78107808701770491E521C5A
:102750008A42F7D90020D3E770B5044600250CB1B2
:10276000012000E0002020B9922207A10EA000F075
:102770003FFB207930B9206920B1206980470120D2
:1027800020710125284670BD6D696E6952544F5302
:102790005C4472697665725C5372635C64657669E9
:1027A00063652E63000000004572726F723A2573F4
:1027B0002C25640D0A0000002DE9F04104460D4669
:1027C000164600270CB1012000E0002020B9B822F5
:1027D00007A10FA000F00CFB207930B9E06920B10F
:1027E00031462846E269904701273846BDE8F08126
:1027F0006D696E6952544F535C4472697665725CC0
:102800005372635C6465766963652E630000000043
:102810004572726F723A25732C25640D0A00000010
:1028200070B50546002400260DB1012000E000200F
:1028300020B9272209A111A000F0DAFA1348046890
:1028400007E02946206800F0C9FB08B9264602E0E7
:10285000A46A002CF5D100BF304670BD6D696E6969
:1028600052544F535C4472697665725C5372635C78
:102870006465766963652E63000000004572726FBF
:10288000723A25732C25640D0A00000054000020C4
:1028900070B5044600250CB1012000E0002020B9ED
:1028A000722208A10FA000F0A3FA6079012806D1D6
:1028B000A06820B1A06880470020607101252846EB
:1028C00070BD00006D696E6952544F535C4472696B
:1028D0007665725C5372635C6465766963652E63CA
:1028E000000000004572726F723A25732C25640D4A
:1028F0000A00000070B504460D4600260CB1012008
:1029000000E0002020B980220BA113A000F070FA93
:10291000207901280DD16079012802D12046FFF7E6
:10292000B7FFE06810B12846E168884700202071B1
:102930000126304670BD00006D696E6952544F53D8
:102940005C4472697665725C5372635C6465766937
:1029500063652E63000000004572726F723A257342
:102960002C25640D0A0000002DE9F04104460E46B6
:1029700015461F464FF0000814B10DB1012000E0CC
:10298000002020B9A02208A10FA000F031FA207980
:1029900038B9606928B13A46294630466369984794
:1029A00080464046BDE8F0816D696E6952544F53D0
:1029B0005C4472697665725C5372635C64657669C7
:1029C00063652E63000000004572726F723A2573D2
:1029D0002C25640D0A00000070B504460026002571
:1029E0000CB1012000E0002020B939220FA117A06E
:1029F00000F0FEF92068FFF713FFA0B91748006840
:102A000020B9164804600020A06208E01348056859
:102A100000E0AD6AA86A0028FBD1AC62A062012088
:102A2000207160710126304670BD00006D696E69CD
:102A300052544F535C4472697665725C5372635CA6
:102A40006465766963652E63000000004572726FED
:102A5000723A25732C25640D0A00000054000020F2
:102A60002DE9F04104460E4615461F464FF000087A
:102A700014B10DB1012000E0002020B9AC2208A162
:102A80000FA000F0B5F9207938B9A06928B13A460D
:102A900029463046A369984780464046BDE8F08104
:102AA0006D696E6952544F535C4472697665725C0D
:102AB0005372635C6465766963652E630000000091
:102AC0004572726F723A25732C25640D0A0000005E
:102AD0002DE9F041074C206840F0100020600A27E3
:102AE000002597FBF5F6314603A000F081F9BDE81B
:102AF000F081000014ED00E07A3A25640A0000003D
:102B000010B5FDF77DFDFEF759FC002010BD00005B
:102B100010B5FF216FF00100FEF70CFA0021481FED
:102B2000FEF708FA0E4CB4F1807F00D311E024F0D8
:102B30007F40401E4FF0E02148610F214FF0FF30F1
:102B4000FEF7F8F900204FF0E021886107200861C6
:102B500000BF022080F3148800BFFFF721FA10BDE8
:102B60004019010008B50FA000F042F911A000F0D3
:102B70003FF917A000F03CF91BA000F039F91FA0A5
:102B800000F036F922A000231A460121009023A06C
:102B900000F02EF927A000F02BF92EA000F028F964
:102BA00008BD000020202020202020202020202FD1
:102BB0005C0D0A005F5F5F5F5F5F5F5F5F5F2F209D
:102BC000205C5F5F5F5F5F5F5F5F5F5F0D0A0000BC
:102BD0002020205F5F5F5F5F5F2F202F5C205C5FA6
:102BE0005F5F5F5F5F0D0A002020202020202020F3
:102BF0002F202F20205C205C0D0A000020202020A8
:102C00002020202F202F202020205C205C0D0A0077
:102C10004665622032302032303232002020256476
:102C20002E25642E2564206275696C642025730D41
:102C30000A00000032303230202D20323032332072
:102C4000436F70797269676874206279206464796F
:102C50000D0A00006D696E6952544F53202D206D8E
:102C6000696E69205265616C2054696D6572204FF0
:102C70007065726174696E672053797374656D0D48
:102C80000A0000002DE9F0478146FEF767F9A9F137
:102C9000180428492068884202D04FF0FF3843E0EA
:102CA000606820F000416FF00040A043814204D1F1
:102CB00001216068B1EBD07F02D04FF0010833E012
:102CC000606820F0004060602746E0684068C00F00
:102CD00078B9E668304600F059FAA168B068183053
:102CE0000844A060F068E060F06808B1F068046132
:102CF0002746206998B120694068C00F78B92569D6
:102D0000284600F043FAA968A06818300844A86073
:102D1000E06808B1E0680561E068E8602F46384681
:102D200000F004FA4FF00008FEF7AAFC4046BDE8A8
:102D3000F08700005AEFCDAB2DE9F04107464FF088
:102D40000008FEF70BF907F0070008B1012000E0CA
:102D5000002000EBD700C600304600F059F90446C9
:102D600014B94FF000082AE0204600F00FFA04F1F1
:102D70001808A01900F11805A068801B1838A86071
:102D8000A660606820F0004000F1004060606FF0D5
:102D90000040A843696860F31E016960686820F01C
:102DA00000406860084828602C61E068E860E068DE
:102DB00008B1E0680561E560284600F0B7F9FEF764
:102DC0005FFC4046BDE8F0815AEFCDAB30B503461D
:102DD0000C46194603B10AB9002030BD01E001F8E4
:102DE000014B101EA2F10102F9D11846F5E70000CF
:102DF0000FB42DE9F04F8DB0242103A8FDF7C7F9DA
:102E000017A80290C8E016980078252804D01699D3
:102E1000087800F0CFF8BCE01698401C16900078B7
:102E2000662854D008DC582815D0622840D0632882
:102E30007DD064287CD11DE06F282AD0732802D071
:102E40007828F7D106E0029840C80290304600F09A
:102E5000B7F89CE000BF029800680C900298001D33
:102E60000290102203A90C98FFF740FC03A800F081
:102E7000A7F88CE0029800680C900298001D029060
:102E80000A2203A90C98FFF731FC03A800F098F878
:102E90007DE0029800680C900298001D02900822C4
:102EA00003A90C98FFF722FC03A800F089F86EE054
:102EB000029800680C900298001D0290022203A95B
:102EC0000C98FFF713FC03A800F07AF85FE0029873
:102ED000C01D20F00700029030C8029A083202920A
:102EE00020462946FDF788FA0C900A2203A90C987F
:102EF000FFF7FCFB03A800F063F82E2000F05AF85F
:102F00000022134620462946FDF7C2FA15D20C9836
:102F1000FDF761FA074622462B46FDF7E7F9002246
:102F2000234BCDE90001FDF7E4F9824601E01FE003
:102F300028E0FDF780FA0C9011E00C98FDF74BFAB1
:102F4000074622462B46FDF7CEF982460022184B53
:102F5000FDF7CFF9CDE90001FDF76DFA0C900A22DB
:102F600003A90C98FFF7C2FB03A800F029F80EE0B4
:102F7000029810F8041B01F0FF090290484600F087
:102F800019F804E01699087800F014F800BF00BFA3
:102F900000BF1698401C16901698007800287FF401
:102FA00032AF02900DB0BDE8F00F5DF814FB0000E9
:102FB000D012634110B504462046FFF737FA10BD22
:102FC00010B5044604B910BD03E014F8010BFFF777
:102FD000F1FF20780028F8D100BFF4E7024601E0B5
:102FE000521C491C10780B78984202D110780028A6
:102FF000F6D110780B78984201DD012070471078E7
:103000000B78984202DA4FF0FF30F7E70020F5E73F
:1030100070B5054600240F48006800680E498842D4
:1030200001D1012000E0002020B982220BA112A0D2
:10303000FFF7DEFE0748046807E005F11800A16805
:10304000814201D9204670BD6469002CF5D120462B
:10305000F9E70000500000205AEFCDAB6D696E69B2
:1030600052544F535C4D656D6F72795C5372635C63
:10307000686561702E6300004572726F723A257345
:103080002C25640D0A00000049E0002441E0C4EB57
:10309000C400234901EB80000079012837D1C4EB3B
:1030A000C40001EB80004079012830D1C4EBC40199
:1030B0001B4A02EB8101486980470020C4EBC40130
:1030C000174A02EB81010871C4EBC400114601EB01
:1030D0008000807C012813D1C4EBC40001EB800088
:1030E000C068104909680844C4EBC40102EB8101BF
:1030F0008860C4EBC40102EB8100FEF7D1FE06E05C
:103100000020C4EBC401064A02EB81014871601C37
:1031100084B2032CBBDB04480088FDF72DFFB4E725
:10312000AC0100203000002044000020164A126844
:1031300012B9154A106025E0134B82681B689B6822
:103140009A4205D2104A126842610F4A106019E093
:103150000D4A11680DE082688B689A4208D3826834
:103160004B699B689A4203D84A694261486103E00F
:1031700049694A69002AEED100BF4A6912B948611B
:1031800000224261704700005000002001464A685A
:1031900022F00042114B1B685B6823F000439A4207
:1031A00005D10E4A126852690C4B1A6014E00B4AA2
:1031B00010680DE04269526822F000424B6823F02B
:1031C00000439A4203D142695269426103E0406977
:1031D0004269002AEED100BF704700005000002075
:1031E00086B00020059004900024039006E184A09E
:1031F000FFF7FEFD8B480078352866D008DCA0F18B
:103200003000052879D2DFE800F01016253145009E
:10321000382873D004DC362873D037286DD188E085
:1032200039286DD06128F9D1DAE0FFF751FC002090
:103230007C490870DDE07C480088FEF781FE7B4811
:103240000088FEF77DFE7AA0FFF7D2FD00207549C9
:103250000870CEE074480088FEF7AEFE7348008820
:10326000FEF7AAFE00206F490870C2E075A0FFF7C4
:10327000D7FA04463CB92046FFF70AFB18B972A0FA
:10328000FFF7B6FD02E076A0FFF7B2FD002065492A
:103290000870AEE000212046FFF72CFB0022012140
:1032A0002046FFF789FA012304AA00212046FFF7F0
:1032B0005BFB2046FFF750FA9DF810106DA0FFF75A
:1032C00097FD00205749087093E0002005900021E9
:1032D0002046FFF70FFB002211462046FFF76CFA4D
:1032E000012305AA00212046FFF7BAFB2046FFF77D
:1032F00033FA00204B4908707BE079E038E000E0C9
:1033000058E00120059000212046FFF7F3FA002243
:1033100011462046FFF750FA012305AA0021204656
:10332000FFF79EFB2046FFF717FA00203D49087083
:103330005FE0012040F6B83103460246CDE90010B7
:103340000A21514800F0AEF918B150A0FFF750FD26
:1033500002E054A0FFF74CFD59A0FFF749FD4A4891
:1033600001685DA0FFF744FD00202E49087040E091
:10337000012041F28833042203A900905E480068CE
:10338000FDF720FE18B15DA0FFF732FD02E064A05A
:10339000FFF72EFD4AA0FFF72BFD0398FDF764F819
:1033A00005462A460B4667A0FFF722FD00201D496F
:1033B00008701EE0012341F288326C491846FEF77E
:1033C00041FA18B16AA0FFF713FD02E06FA0FFF702
:1033D0000FFD76A0FFF70CFD00201249087008E0F1
:1033E00078480088FDF7C8FD00200E49087000E00D
:1033F00000BF00BF4FF47A70FDF790FFF7E60000C2
:1034000031313131313131313131313131313131AC
:103410003131313131313131313131313131310DC0
:103420000A000000140000201A0000201C000020E8
:1034300053746172745F536F66745F54696D657223
:103440000D0A00004C4544004C45442064657669F3
:103450006365206973206661696C200D0A000000B5
:103460004C454420646576696365206973204F4B41
:10347000200D0A0072785F627566666572203D20D5
:1034800025640D0A00000000680000205461736B81
:10349000312077616974204576656E74204F4B202A
:1034A0000D0A00005461736B312077616974204507
:1034B00076656E74204661696C200D0A000000007C
:1034C0005461736B3120E8A7A3E999A4E998BBE59F
:1034D000A19E200D0A0000005461736B31207761BA
:1034E0006974206576656E742064617461203D2086
:1034F00025580D0A00000000200000205461736B65
:1035000031205175657565206D6573736167652040
:1035100052656365697665204F4B200D0A000000F7
:103520005461736B31205175657565206D657373DA
:103530006167652052656365697665204661696CDF
:10354000200D0A005461736B31205175657565203B
:103550006D65737361676520726563656976652063
:1035600064617461203D2025660D0A00580000202A
:103570005461736B352053656D6170686F7265318E
:103580002054616B65204F4B200D0A005461736B12
:10359000352053656D6170686F7265312054616BC1
:1035A00065204661696C200D0A0000005461736B50
:1035B0003520E8A7A3E999A4E998BBE5A19E200DD1
:1035C0000A000000160000201CB52348019041E0CD
:1035D00022A0FFF70DFC2A480078622806D0632855
:1035E0000CD0642820D065282ED125E00121254863
:1035F000FEF74EFA00202249087026E00198FCF7F9
:1036000033FF044622460B461FA0FFF7F1FB0120C3
:103610000023042201A900901F480068FDF712FD55
:1036200000201749087010E01C490120FEF76AF8D5
:1036300000201349087008E019480088FEF72EF8AA
:1036400000200F49087000E000BF00BF4FF47A70FF
:10365000FDF764FEBCE70000D00F49403232323241
:10366000323232323232323232323232323232323A
:1036700032323232323232323232320D0A0000000D
:103680001400002068000020517565756553656E53
:10369000642025660D0A000020000020580000204C
:1036A000160000202DE9F05F04460D4616469846A8
:1036B000DDE90A9A0027FDF765F983463EB92068DF
:1036C0002840A84201D1012007E0002005E0206841
:1036D000284008B1012000E000200746012F38D023
:1036E000BAF1000F34D0B9F1000F01D1002730E05A
:1036F000201D1F49096840F8215014301C490968F1
:1037000046540121801D1A4A126820F812105846AA
:10371000FDF742F94846FDF701FEFDF733F9834610
:10372000002104F11E00124A126820F812103EB95E
:1037300020682840A84201D1012007E0002005E0D0
:103740002068284008B1012000E00020074600E082
:103750000027B8F1010F04D1012F02D12068A8433E
:1037600020605846FDF718F93846BDE8F09F000084
:1037700034000020943700080000002058000000AA
:10378000CE260008EC37000858000020A8150000DD
:10379000DE26000800000000010203040102030409
:1037A00006070809020406080000000000000000E7
:1037B0000000000000000000000000000000000009
:1037C00000000000000000000000000001000000F8
:1037D00000000000000000000000000000000000E9
:0C37E000000000000000000000000000DD
:04000005080000ED02
:00000001FF
